S00C00006D61696E2E7372656373
S113000000E4FF1F570600005506000055060000D7
S113001000000000000000000000000000000000DC
S11300200000000000000000000000005506000071
S11300300000000000000000550600005506000006
S11300405706000057060000570600005706000038
S11300500000000057060000570600005706000085
S11300605706000057060000570600005706000018
S11300705706000057060000570600005706000008
S113008057060000570600005706000057060000F8
S11300905706000057060000570600000000000045
S11300A057060000570600005706000057060000D8
S11300B05706000000000000570600005706000025
S1130400FFFFFFFFFFFFFFFFFFFFFFFFFEFFFFFFF9
S1130410024B03221A7000225A70704700400640B3
S113042082B00023019302E0019B01330193019AFE
S1130430024B9A42F8DD02B07047C0463F420F00BB
S11304400B4B88225201002199500A4958588022A6
S1130450120102435A50084AD16881235B000B43BE
S1130460D360064A536908218B4353617047C046E1
S1130470007004403810000000B0044080F00F40C9
S11304800B4B88225201002199500A495858802266
S1130490120102435A50084A116B81235B000B433B
S11304A01363064A536906490B4053617047C046BB
S11304B0007004403810000000B0044080F00F4089
S11304C0FFEFFFFF034B1B690820184043425841CC
S11304D07047C04680F00F40034B186980235B01CE
S11304E0184043425841704780F00F400C4B88221B
S11304F05201002199500B4958588022120102439D
S11305005A50094BD968812252001143D960196BA2
S11305100A431A63054A536905490B4053617047FE
S1130520007004403810000000B0044080F00F4018
S1130530F7EFFFFF0A4B8822520100219950094925
S11305405858013AFF3A02435A50074B802252004E
S11305505A61064B5A6920210A435A61596070470F
S1130560007004403810000000C00440C0F00F4088
S1130570014B2022DA607047C0F00F400B4B8822F9
S11305805201002199500A4958588022920102438D
S11305905A50084B802252005A67074B5A698021EF
S11305A089050A435A6159607047C0460070044087
S11305B03810000000D0044000F10F40024B8022AC
S11305C09205DA607047C04600F10F4010B50F4B3A
S11305D088225201002199500D495858C022920195
S11305E002435A5080235B000A4A53610A4A536704
S11305F00A4A5369202423435361094B59698020D3
S11306008005014359615460586010BD0070044076
S11306103810000000C0044000D00440C0F00F4077
S113062000F10F4000B583B0FFF7F2FE00F030F8A0
S1130630064800F0E8F9064B01930023009301E01B
S1130640009B019B009B1F2BFAD9FEE79A02000036
S1130650984DB132FEE710B5084B094A01E002CAD1
S113066002C308498B42FAD3074B01E0002204C3BA
S1130670064A9342FAD3FFF7D5FF10BD00E0FF1FEF
S1130680440E000000E0FF1F00E0FF1F00E0FF1F1A
S113069010B5264B0022882149015A5024481C5881
S11306A0244921431950244B18688021090201432D
S11306B0196019688020814319602049CA610A625F
S11306C08A62CA624A658A65CA651D494A648A643F
S11306D01C490A601C490A614A611C4919605A6034
S11306E09A601B4919611B495961C0210903996129
S11306F01949D9611A625A629A62DA62174919630E
S11307005A639A63DA631A645A6411219964DA6445
S11307101A65113159659A65DA651968104A1140EC
S113072019601A6802431A6010BDC0460070044084
S113073038100000003C08000030054000A00440D0
S113074000B0044000C0044000D004406384B00002
S1130750800D0E006001300000011000000088448C
S1130760FF7FFFFF10B50F4B4522FF219954143A28
S11307707739995422390A3A9954002228241A556F
S11307802D34195520395A540F2806D9054B002207
S11307902A215A5401315A5410BD423900F004F848
S11307A0FAE7C0460030054010B5042906D80F28E2
S11307B000D906E18000854B1B589F460120FFF7B6
S11307C0D1FF10BD4B1E5B00814AD35C8148844637
S11307D06344BB20187049000139535C6344EE2222
S11307E01A70EEE74B1E5B00794AD35C7948844665
S11307F063440020187049000139535C6344662245
S11308001A70DEE74B1E5B00714AD35C7148844664
S113081063447720187049000139535C6344CC2247
S11308201A70CEE74B1E5B00694AD35C6948844664
S113083063445520187049000139535C6344EE2227
S11308401A70BEE74B1E5B00614AD35C6148844664
S11308506344CC20187049000139535C6344662218
S11308601A70AEE74B1E5B00594AD35C5948844664
S11308706344DD20187049000139535C6344AA22A3
S11308801A709EE74B1E5B00514AD35C5148844664
S11308906344FF20187049000139535C6344AA2261
S11308A01A708EE74B1E5B00494AD35C4948844664
S11308B063440020187049000139535C6344EE22FC
S11308C01A707EE74B1E5B00414AD35C4148844664
S11308D06344FF20187049000139535C6344EE22DD
S11308E01A706EE74B1E5B00394AD35C3948844664
S11308F06344CC20187049000139535C6344EE22F0
S11309001A705EE74B1E5B003148C35C314A944663
S11309106344EE221A7049000139435C63441A703F
S11309204FE74B1E5B002A4AD35C2A488446634443
S1130930FF20187049000139535C634422221A7065
S11309403FE74B1E5B00224AD35C22488446634443
S1130950BB20187049000139535C634488221A7023
S11309602FE74B1E5B001A4AD35C1A488446634443
S11309707720187049000139535C634466221A7069
S11309801FE74B1E5B00124AD35C12488446634443
S1130990FF20187049000139535C634488221A709F
S11309A00FE74B1E5B000A4AD35C0A488446634443
S11309B0EE20187049000139535C634488221A7090
S11309C0FFE60120FFF7CEFEFBE6C046F40D000073
S11309D0340E00002030054070B50400000B0121E6
S11309E0FFF7E2FE200A0F2528400221FFF7DCFE74
S11309F0201128400321FFF7D7FE200028400421BE
S1130A00FFF7D2FE70BD70B50400214B984203D9A4
S1130A101020FFF7A7FE70BDFA21890000F074F8DA
S1130A2085B2C0B20121FFF7BFFEA805401B8001BB
S1130A30401940004019C0002018642100F0EEF86D
S1130A40C0B20221FFF7B0FE6421200000F05CF880
S1130A5082B243069B1A9B009B18DB009B1A9800EA
S1130A6020180A2100F0DAF8C0B20321FFF79CFE37
S1130A700A21200000F048F843011B1A9B00181AB1
S1130A8040000019C0B20421FFF78EFEC3E7C04640
S1130A900F27000070B505000C00632383429241C8
S1130AA052428B429B415B42134303D01020FFF719
S1130AB059FE70BD0A2100F027F8C0B20121FFF7EA
S1130AC073FE0A21280000F0A5F8C8B20221FFF73E
S1130AD06BFE0A21200000F017F8C0B20321FFF7D3
S1130AE063FE0A21200000F095F8C8B20421FFF744
S1130AF05BFE04492B228B5C11200343DBB28B5435
S1130B00D7E7C04600300540002243088B4274D327
S1130B1003098B425FD3030A8B4244D3030B8B42FA
S1130B2028D3030C8B420DD3FF22090212BA030C03
S1130B308B4202D31212090265D0030B8B4219D3E4
S1130B4000E0090AC30B8B4201D3CB03C01A524104
S1130B50830B8B4201D38B03C01A5241430B8B424C
S1130B6001D34B03C01A5241030B8B4201D30B0335
S1130B70C01A5241C30A8B4201D3CB02C01A52415C
S1130B80830A8B4201D38B02C01A5241430A8B421F
S1130B9001D34B02C01A5241030A8B4201D30B0208
S1130BA0C01A5241CDD2C3098B4201D3CB01C01A22
S1130BB0524183098B4201D38B01C01A524143092C
S1130BC08B4201D34B01C01A524103098B4201D31A
S1130BD00B01C01A5241C3088B4201D3CB00C01A87
S1130BE0524183088B4201D38B00C01A52414308FF
S1130BF08B4201D34B00C01A5241411A00D2014624
S1130C00524110467047FFE701B5002000F0F0F8AC
S1130C1002BDC0460029F7D076E7704703460B4370
S1130C207FD4002243088B4274D303098B425FD3E1
S1130C30030A8B4244D3030B8B4228D3030C8B420D
S1130C400DD3FF22090212BA030C8B4202D31212F3
S1130C50090265D0030B8B4219D300E0090AC30BC8
S1130C608B4201D3CB03C01A5241830B8B4201D375
S1130C708B03C01A5241430B8B4201D34B03C01A5E
S1130C805241030B8B4201D30B03C01A5241C30AD6
S1130C908B4201D3CB02C01A5241830A8B4201D347
S1130CA08B02C01A5241430A8B4201D34B02C01A31
S1130CB05241030A8B4201D30B02C01A5241CDD2D6
S1130CC0C3098B4201D3CB01C01A524183098B4221
S1130CD001D38B01C01A524143098B4201D34B010A
S1130CE0C01A524103098B4201D30B01C01A52416D
S1130CF0C3088B4201D3CB00C01A524183088B42F4
S1130D0001D38B00C01A524143088B4201D34B00DC
S1130D10C01A5241411A00D201465241104670474E
S1130D205DE0CA0F00D04942031000D34042534053
S1130D3000229C4603098B422DD3030A8B4212D313
S1130D40FC22890112BA030A8B420CD38901921145
S1130D508B4208D3890192118B4204D389013AD082
S1130D60921100E08909C3098B4201D3CB01C01A57
S1130D70524183098B4201D38B01C01A524143096A
S1130D808B4201D34B01C01A524103098B4201D358
S1130D900B01C01A5241C3088B4201D3CB00C01AC5
S1130DA0524183088B4201D38B00C01A5241D9D2DD
S1130DB043088B4201D34B00C01A5241411A00D25E
S1130DC00146634652415B10104601D34042002B5A
S1130DD000D54942704763465B1000D3404201B5D9
S1130DE0002000F005F802BD0029F8D016E770478E
S1130DF07047C046C4070000E40700000408000070
S1130E00240800004408000064080000840800006E
S1130E10A4080000C4080000E4080000040900005D
S1130E202209000042090000620900008209000052
S10F0E30A20900002511070835260A0B52
S1070E3CF8B5C046FB
S1070E40F8B5C046F7
S9030410E8
