S00C00006D61696E2E7372656373
S1130000F0140020F1060000510700005107000021
S113001000000000000000000000000000000000DC
S1130020000000000000000000000000E11D0000CE
S11300300000000000000000F51E00003B1F00004F
S1130040F1060000F1060000F1060000F1060000D0
S113005000000000F1060000F1060000F1060000B7
S1130060F1060000F1060000F1060000F1060000B0
S1130070F1060000F1060000F1060000F1060000A0
S1130080F1060000F1060000F1060000F106000090
S1130090F1060000F1060000F10600000000000077
S11300A0F1060000F1060000F1060000F106000070
S11300B0F106000000000000F1060000F106000057
S1130400FFFFFFFFFFFFFFFFFFFFFFFFFEFFFFFFF9
S113041080B500AF044B03221A70034B00225A70BC
S1130420C046BD4680BDC0460040064080B582B08F
S113043000AF00237B6002E07B6801337B607B6854
S1130440034A9342F8DDC046C046BD4602B080BDB3
S11304503F420F0080B500AF0E4A88235B010021A4
S1130460D1500C4A0C4BD3580A4980221201134331
S1130470094A8B50094BDA68084B812149000A4329
S1130480DA60074B5A69064B08218A435A61C04611
S1130490BD4680BD007004403810000000B0044028
S11304A080F00F4080B500AF0E4A88235B01002125
S11304B0D1500C4A0C4BD3580A49802212011343E1
S11304C0094A8B50094B1A6B084B812149000A4396
S11304D01A63074B5A69064B06490A405A61C046DB
S11304E0BD4680BD007004403810000000B00440D8
S11304F080F00F40FFEFFFFF80B500AF044B1B6996
S1130500082213405A425341DBB21800BD4680BD55
S113051080F00F4080B500AF054B1A6980235B0162
S113052013405A425341DBB21800BD4680BDC04659
S113053080F00F4080B500AF0E4A88235B01002194
S1130540D1500C4A0C4BD3580A4980225201134310
S1130550094A8B50094B802252005A61084B5A6950
S1130560074B20210A435A61054B20225A60C0469A
S1130570BD4680BD007004403810000000C0044037
S1130580C0F00F4080B500AF024B2022DA60C046B5
S1130590BD4680BDC0F00F4080B500AF0F4A882330
S11305A05B010021D1500D4A0D4BD3580B498022D9
S11305B0920113430A4A8B500A4B802252005A6715
S11305C0094B5A69084B802189050A435A61064B35
S11305D0802292055A60C046BD4680BD007004402A
S11305E03810000000D0044000F10F4080B500AF87
S11305F0034B80229205DA60C046BD4680BDC046EA
S113060000F10F4080B500AF164A88235B0100213A
S1130610D150144A144BD3581249C02292011343A7
S1130620114A8B50114B802252005A61104B802288
S113063052005A670F4B5A690E4B20210A435A61E4
S11306400D4B5A690C4B802189050A435A61094BA9
S113065020225A60084B802292055A60C046BD464B
S113066080BDC046007004403810000000C0044043
S113067000D00440C0F00F4000F10F4080B500AF3F
S11306800A2001F0EFFEFA235B00180000F024FAC0
S1130690C046BD4680BD80B500AF142001F0E2FE27
S11306A0C82000F019FAC046BD4680BD80B582B0AE
S11306B000AF7860FFF766FFC82000F00DFAF9E795
S11306C080B582B000AF7860FFF790FFFA235B003B
S11306D0180000F001FAF7E780B500AFFFF798FEC5
S11306E001F056FC0A210A2001F069FFFEE7C0462A
S11306F080B582B000AF114B7B60114B3B6007E0CB
S11307007A68131D7B603B68191D396012681A6092
S11307103A680C4B9A42F3D30B4B3B6004E03B68C2
S11307201A1D3A6000221A603A68084B9A42F6D3BE
S1130730FFF7D2FFC046BD4602B080BDDC290000F1
S113074000E0FF1F08E0FF1F08E0FF1FF01000207B
S113075080B500AFFEE7C04680B582B000AF7860D8
S11307607B6808331A007B685A607B680122524216
S11307709A607B6808331A007B68DA607B68083308
S11307801A007B681A617B6800221A60C046BD4665
S113079002B080BD80B582B000AF78607B68002273
S11307A01A61C046BD4602B080BD80B584B000AFBA
S11307B0786039607B685B68FB603B68FA685A6004
S11307C0FB689A683B689A60FB689B683A685A6061
S11307D0FB683A689A603B687A681A617B681B68B0
S11307E05A1C7B681A60C046BD4604B080BD80B503
S11307F084B000AF786039603B681B68BB60BB683D
S1130800013303D17B681B69FB600CE07B68083310
S1130810FB6002E0FB685B68FB60FB685B681B686D
S1130820BA689A42F6D2FB685A683B685A603B68D9
S11308305B683A689A603B68FA689A60FB683A6851
S11308405A603B687A681A617B681B685A1C7B682B
S11308501A60C046BD4604B080BD80B584B000AF08
S113086078607B681B69FB607B685B687A68926868
S11308709A607B689B687A6852685A60FB685B6818
S11308807A689A4203D17B689A68FB685A607B68ED
S113089000221A61FB681B685A1EFB681A60FB6819
S11308A01B681800BD4604B080BD000090B58BB035
S11308B002AFF860B9603B60BB1D1A80FB68002B77
S11308C001D172B6FEE73B6B042B01D972B6FEE789
S11308D0BA6BBB1D1B881100180000F093FD0300C8
S11308E0BB61BB69002B00D170E0BB691A6BBB1DF7
S11308F01B8842498C4663449B00D3187B617B6907
S1130900072293437B617B690722134001D072B6AF
S1130910FEE7FC6B3A6BB968B869BB1D1B88009392
S1130920230000F0A5FC3A68F9687B69180001F01F
S113093021FA0200BB691A607B6B002B02D07B6B2F
S1130940BA691A6001F0A2FA2D4B1B685A1C2C4B91
S11309501A602C4B1B68002B09D12A4BBA691A6008
S1130960274B1B68012B0FD100F0D7FC0CE0264B62
S11309701B68002B08D1234B1B68DB6A3A6B9A4235
S113098002D3204BBA691A60204B1B685A1C1F4BB8
S11309901A60BB69DA6A1E4B1B689A4203D9BB69A9
S11309A0DA6A1B4B1A60BB69DA6A13009B009B1856
S11309B09B00184A9A18BB69043319001000FFF70A
S11309C0F4FE0123FB6101F073FA02E001235B42B0
S11309D0FB61FB69012B0BD10B4B1B68002B07D070
S11309E0084B1B68DB6A3A6B9A4201D901F03EFA64
S11309F0FB691800BD4609B090BDC046FFFFFF3F2C
S1130A00B4E0FF1F08E0FF1FC0E0FF1FD0E0FF1F9E
S1130A10BCE0FF1F0CE0FF1F80B586B000AF78601C
S1130A20396000237B617B68002B01D172B6FEE73D
S1130A303B68002B01D172B6FEE7244B1B68002BE8
S1130A4001D072B6FEE700F0C1F8214B1B683B6190
S1130A507B681B683A68D318FB607B681B683A693B
S1130A609A420BD27B681B68FA689A4211D2FA68E0
S1130A703B699A420DD901237B610AE07B681B68BC
S1130A80FA689A4203D3FA683B699A4201D901236E
S1130A907B617B68FA681A607B69002B09D00D4B77
S1130AA01B6804331800FFF7D8FEFB68180000F039
S1130AB072FC00F097F80300BB60BB68002B01D107
S1130AC001F0D4F9C046BD4606B080BDD8E0FF1F92
S1130AD0B8E0FF1F08E0FF1F80B584B000AF786066
S1130AE00023FB607B68002B1AD0124B1B68002B81
S1130AF001D072B6FEE700F069F80F4B1B687A6804
S1130B00D318BB600D4B1B6804331800FFF7A5FE18
S1130B10BB68180000F03FFC00F064F80300FB60C1
S1130B20FB68002B01D101F0A1F9C046BD4604B019
S1130B3080BDC046D8E0FF1FB8E0FF1F08E0FF1FDC
S1130B4080B586B004AF15491548002303930023EC
S1130B500293002301930023009300235022FFF704
S1130B60A5FE03007B607B68012B0DD172B60D4B93
S1130B70012252421A600C4B01221A600B4B0022D4
S1130B801A6001F042F904E07B68002B01D172B6CF
S1130B90FEE7C046BD4602B080BDC0464C290000F9
S1130BA051120000D4E0FF1FC0E0FF1FB8E0FF1F98
S1130BB080B500AF72B6044B00221A6001F046F90A
S1130BC0C046BD4680BDC046C0E0FF1F80B500AF33
S1130BD0034B1B685A1C024B1A60C046BD4680BDBD
S1130BE0D8E0FF1F80B582B000AF00237B60374B95
S1130BF01B68002B01D172B6FEE701F047F9334BB5
S1130C001B685A1E314B1A60304B1B68002B55D1A0
S1130C102F4B1B68002B51D02FE02E4BDB68DB6879
S1130C203B603B6818331800FFF717FE3B6804333A
S1130C301800FFF712FE3B68DA6A274B1B689A42DA
S1130C4003D93B68DA6A244B1A603B68DA6A1300FA
S1130C509B009B189B00214A9A183B680433190097
S1130C601000FFF7A2FD3B68DA6A1D4B1B68DB6AC4
S1130C709A4202D31B4B01221A60164B1B68002BAD
S1130C80CBD1194B1B68002B10D00BE000F056F8A9
S1130C90031E02D0134B01221A60134B1B685A1E09
S1130CA0114B1A60104B1B68002BEFD10D4B1B68C6
S1130CB0012B03D101237B6001F0D8F801F0F8F88F
S1130CC07B681800BD4602B080BDC046D8E0FF1F57
S1130CD0B4E0FF1FA0E0FF1FBCE0FF1F0CE0FF1FFC
S1130CE008E0FF1FC8E0FF1FC4E0FF1F80B582B00B
S1130CF000AF044B1B687B607B681800BD4602B0E4
S1130D0080BDC046B8E0FF1F80B582B000AF0023AD
S1130D107B60044B1B683B603B681800BD4602B017
S1130D2080BDC046B8E0FF1F80B500AF024B1B6812
S1130D301800BD4680BDC046B4E0FF1F80B586B034
S1130D4000AF00237B614D4B1B68002B00D084E077
S1130D504B4B1B685A1C4A4B1A60494B1B683B613E
S1130D603B69002B17D1474B1B681B68002B01D034
S1130D7072B6FEE7434B1B68FB60434B1A68414B5A
S1130D801A60414BFA681A60404B1B685A1C3F4B6F
S1130D901A6000F066FB3E4B1B683A699A424ED3D8
S1130DA0384B1B681B68002B01D1012300E0002392
S1130DB0002B04D0364B012252421A603FE0314BE3
S1130DC01B68DB68DB68BB60BB685B687B603A6997
S1130DD07B689A4203D22E4B7A681A602FE0BB6874
S1130DE004331800FFF739FDBB689B6A002B04D05D
S1130DF0BB6818331800FFF730FDBB68DA6A254B6F
S1130E001B689A4203D9BB68DA6A224B1A60BB6832
S1130E10DA6A13009B009B189B001F4A9A18BB6850
S1130E20043319001000FFF7C0FCBB68DA6A1B4BDF
S1130E301B68DB6A9A42B3D301237B61B0E7174B8B
S1130E401B68DA6A144913009B009B189B005B58CB
S1130E50012B07D901237B6104E0114B1B685A1C49
S1130E600F4B1A600F4B1B68002B01D001237B61D1
S1130E707B691800BD4606B080BDC046D8E0FF1FA0
S1130E80B8E0FF1F98E0FF1F9CE0FF1FCCE0FF1FAE
S1130E90D4E0FF1FBCE0FF1F0CE0FF1F08E0FF1FB2
S1130EA0C4E0FF1FC8E0FF1F80B582B000AF214B34
S1130EB01B68002B03D0204B01221A6036E01E4B26
S1130EC000221A600AE01D4B1B68002B01D172B688
S1130ED0FEE71A4B1B685A1E184B1A60174B1A6808
S1130EE0174913009B009B189B005B58002BEAD00A
S1130EF0124B1A6813009B009B189B00104A9B1806
S1130F007B607B685B685A687B685A607B685A6858
S1130F107B6808339A4204D17B685B685A687B68B3
S1130F205A607B685B68DA68064B1A60C046BD4647
S1130F3002B080BDD8E0FF1FC8E0FF1FBCE0FF1F68
S1130F400CE0FF1F08E0FF1F80B584B000AF78609D
S1130F5039607B68002B01D172B6FEE70D4B1B682C
S1130F6018331A007B6811001800FFF740FC094B86
S1130F701B6804331800FFF770FC074B1B683A68C2
S1130F80D318FB60FB68180000F005FAC046BD46A4
S1130F9004B080BD08E0FF1FB8E0FF1F80B586B035
S1130FA000AFF860B9607A60FB68002B01D172B6BB
S1130FB0FEE7144B1B68002B01D172B6FEE7124BFF
S1130FC01B68BA68802109060A439A610E4B1B68A4
S1130FD018331A00FB6811001800FFF7E6FB0A4BF0
S1130FE01B6804331800FFF738FC084B1B687A6849
S1130FF0D3187B617B69180000F0CDF9C046BD466B
S113100006B080BDD8E0FF1F08E0FF1FB8E0FF1F57
S113101080B584B000AF78607B68DB68DB68BB6058
S1131020BB68002B01D172B6FEE7BB681833180009
S1131030FFF713FC1E4B1B68002B1DD1BB68043348
S11310401800FFF70AFCBB68DA6A1A4B1B689A425D
S113105003D9BB68DA6A174B1A60BB68DA6A1300F3
S11310609B009B189B00144A9A18BB680433190010
S11310701000FFF79AFB07E0BB6818331A000F4B08
S113108011001800FFF791FBBB68DA6A0C4B1B6870
S1131090DB6A9A4205D90123FB600A4B01221A60DC
S11310A001E00023FB60FB681800BD4604B080BD6E
S11310B0D8E0FF1FBCE0FF1F0CE0FF1FA0E0FF1FF4
S11310C008E0FF1FC8E0FF1F80B584B000AF786060
S11310D03960244B1B68002B01D172B6FEE73B68D4
S11310E0802212061A437B681A607B68DB68BB6047
S11310F0BB68002B01D172B6FEE77B681800FFF7CE
S1131100ACFBBB6804331800FFF7A7FBBB68DA6AC3
S1131110154B1B689A4203D9BB68DA6A124B1A60F2
S1131120BB68DA6A13009B009B189B000F4A9A184D
S1131130BB68043319001000FFF737FBBB68DA6A99
S11311400B4B1B68DB6A9A4205D90123FB60094BF0
S113115001221A6001E00023FB60FB681800BD4611
S113116004B080BDD8E0FF1FBCE0FF1F0CE0FF1FF0
S113117008E0FF1FC8E0FF1F80B582B000AF7860B1
S11311807B68002B01D172B6FEE7064B1A687B68B8
S11311901A60054B1A687B685A60C046BD4602B0A7
S11311A080BDC046CCE0FF1FB8E0FF1F80B584B00F
S11311B000AF786039607B68002B01D172B6FEE71E
S11311C03B68002B01D172B6FEE700F05FFE194BBD
S11311D01B68BB607B681A68174B1B689A4207D070
S11311E07B685B68BA689A4202D30123FB6019E00A
S11311F07B685B68BA68D21A3B681B689A420FD254
S11312003B681A687B685968BB68CB1AD2183B687C
S11312101A607B681800FFF7AFFF0023FB6001E052
S11312200123FB6000F044FEFB681800BD4604B0D7
S113123080BDC046B8E0FF1FCCE0FF1F80B500AF03
S1131240024B01221A60C046BD4680BDC8E0FF1FA4
S113125080B582B000AF786000F098F8034B1B684B
S1131260012BF9D900F002FEF6E7C0460CE0FF1F9F
S113127080B586B000AFF860B9607A603B60002347
S11312807B6113E0BA687B69D3181878FA68342153
S11312907B69D3185B18021C1A70BA687B69D3186F
S11312A01B78002B06D07B6901337B617B69092B9A
S11312B0E8D900E0C046FB683D22002199547B68D0
S11312C0042B01D904237B60FB687A68DA62FB682B
S11312D07A681A64FB6800225A64FB6804331800B5
S11312E0FFF758FAFB6818331800FFF753FAFB6846
S11312F0FA681A617B680522D21AFB689A61FB6856
S1131300FA685A62FB6800229A64FB684C22002146
S11313109954C046BD4606B080BD80B582B000AFCA
S113132000237B600CE07A6813009B009B189B00F1
S1131330104A9B181800FFF70FFA7B6801337B6093
S11313407B68042BEFD90C4B1800FFF705FA0B4B05
S11313501800FFF701FA0A4B1800FFF7FDF9094BD3
S1131360054A1A60084B054A1A60C046BD4602B0D9
S113137080BDC0460CE0FF1F70E0FF1F84E0FF1F2C
S1131380A0E0FF1F98E0FF1F9CE0FF1F80B500AFA7
S1131390C046BD4680BD80B582B000AF7860144BB6
S11313A01B687A685A60134B1B687A689A4209D2A0
S11313B0114B1A680E4B1B68043319001000FFF719
S11313C016FA10E00D4B1A68094B1B680433190018
S11313D01000FFF70CFA0A4B1B687A689A4202D293
S11313E0074B7A681A60C046BD4602B080BDC0464D
S11313F008E0FF1FB8E0FF1F9CE0FF1F98E0FF1FFD
S1131400D4E0FF1F80B584B000AF02003960BB1D7B
S11314101A803B68002B07D1BB1D1B889B0018005A
S113142000F0AAFB030000E03B68BB60BB68002B34
S113143010D0502000F0A0FB0300FB60FB68002BE1
S113144003D0FB68BA681A6306E0BB68180000F0B2
S113145021FC01E00023FB60FB681800BD4604B0DA
S113146080BD80B582B000AF0D4B1B681B68002B9C
S113147001D1012300E00023002B04D0094B0122F9
S113148052421A6008E0064B1B68DB68DB687B602D
S11314907B685A68034B1A60C046BD4602B080BDE3
S11314A098E0FF1FD4E0FF1F80B582B000AF044B6B
S11314B01B687B607B681800BD4602B080BDC046D7
S11314C008E0FF1F80B584B000AF78607B68FB60E4
S11314D07B68002B4AD0FB68DA6A264B1B68DB6A00
S11314E09A4243D2FB689B69002B06DB214B1B68A5
S11314F0DB6A0522D21AFB689A61FB685969FB68AA
S1131500DA6A13009B009B189B001B4A9B189942A4
S113151001D1012300E00023002B22D0FB68043317
S11315201800FFF79AF9134B1B68DA6AFB68DA6252
S1131530FB68DA6A114B1B689A4203D9FB68DA6AC2
S11315400E4B1A60FB68DA6A13009B009B189B0021
S1131550094A9A18FB68043319001000FFF725F9AB
S113156004E0044B1B68DA6AFB68DA62C046BD46D5
S113157004B080BD08E0FF1F0CE0FF1FBCE0FF1FAC
S113158080B584B000AF78607B68BB600023FB60EB
S11315907B68002B44D0254B1B68BA689A4201D063
S11315A072B6FEE7BB685B6C002B01D172B6FEE736
S11315B0BB685B6C5A1EBB685A64BB68DA6ABB685A
S11315C01B6C9A422CD0BB685B6C002B28D1BB6887
S11315D004331800FFF741F9BB681A6CBB68DA6280
S11315E0BB68DB6A0522D21ABB689A61BB68DA6AF7
S11315F00F4B1B689A4203D9BB68DA6A0C4B1A601A
S1131600BB68DA6A13009B009B189B00094A9A186E
S1131610BB68043319001000FFF7C7F80123FB600F
S1131620FB681800BD4604B080BDC04608E0FF1F3B
S1131630BCE0FF1F0CE0FF1F80B582B000AF084B79
S11316401B689B697B60064B1B68DA6A044B1B684A
S113165005218A1A9A617B681800BD4602B080BDD4
S113166008E0FF1F80B500AF064B1B68002B04D0B9
S1131670044B1B685A6C01325A64024B1B681800F5
S1131680BD4680BD08E0FF1F80B584B000AF786020
S1131690396000F0FBFB214B1B689B6C002B18D1BD
S11316A01E4B1B684C22012199543B68002B10D01F
S11316B01A4B1B6804331800FFF7CFF8184B1B684C
S11316C03A68D318FB60FB681800FFF764FE00F06B
S11316D0CDFB00F0EDFB00F0D9FB104B1B689B6CBD
S11316E0BB60BB68002B0CD07B68002B04D00B4B79
S11316F01B6800229A6404E0084B1B689A6C013A48
S11317009A64064B1B684C220021995400F0D0FBCC
S1131710BB681800BD4604B080BDC04608E0FF1F8A
S1131720B8E0FF1F80B586B000AFF860B9607A609A
S11317303B6000F0ABFB294B1B684C229B5CDBB28B
S1131740022B1FD0254B1B689A6CF968C9430A40C9
S11317509A64224B1B684C22012199543B68002B4C
S113176010D01E4B1B6804331800FFF776F81C4B8F
S11317701B683A68D3183B613B691800FFF70BFEFE
S113178000F074FB00F094FB00F080FB7B68002BFE
S113179004D0124B1B689A6C7B681A600F4B1B6851
S11317A04C229B5CDBB2012B02D100237B6108E05D
S11317B00A4B1B689A6CB968C9430A409A640123AE
S11317C07B61064B1B684C220021995400F070FB8E
S11317D07B691800BD4606B080BDC04608E0FF1F07
S11317E0B8E0FF1F80B588B000AFF860B9603B6017
S11317F0FB1D1A700123FB61FB68002B01D172B63B
S1131800FEE7FB68BB6100F041FB3B68002B03D0A3
S1131810BB699A6C3B681A601723FB18BA694C21A0
S1131820525C1A70BB694C2202219954FB1D1B782F
S1131830042B22D89A002D4BD3181B689F46BB69F2
S11318409A6CBB681A43BB699A6416E0BB699B6CCB
S11318505A1CBB699A6410E0BB69BA689A640CE0CC
S11318601723FB181B78022B03D0BB69BA689A6450
S113187003E00023FB6100E0C0461723FB181B783C
S1131880012B2BD1BB6904331800FEF7E6FFBB69BB
S1131890DA6A174B1B689A4203D9BB69DA6A144B9C
S11318A01A60BB69DA6A13009B009B189B00114AFB
S11318B09A18BB69043319001000FEF776FFBB6960
S11318C09B6A002B01D072B6FEE7BB69DA6A0A4B49
S11318D01B68DB6A9A4201D900F0C8FA00F0E8FA02
S11318E0FB691800BD4608B080BDC04654290000FD
S11318F0BCE0FF1F0CE0FF1F08E0FF1F80B588B0AD
S113190000AFF860B9603B60FB1D1A700123FB61F6
S1131910FB68002B01D172B6FEE7FB68BB6100F0E7
S1131920DFFA03007B613B68002B03D0BB699A6C30
S11319303B681A601323FB18BA694C21525C1A7075
S1131940BB694C2202219954FB1D1B78042B22D81D
S11319509A00364BD3181B689F46BB699A6CBB68C8
S11319601A43BB699A6416E0BB699B6C5A1CBB6939
S11319709A6410E0BB69BA689A640CE01323FB18FC
S11319801B78022B03D0BB69BA689A6403E0002376
S1131990FB6100E0C0461323FB181B78012B3CD1EC
S11319A0BB699B6A002B01D072B6FEE7204B1B6813
S11319B0002B1DD1BB6904331800FEF74EFFBB6931
S11319C0DA6A1C4B1B689A4203D9BB69DA6A194B61
S11319D01A60BB69DA6A13009B009B189B00164AC5
S11319E09A18BB69043319001000FEF7DEFE07E005
S11319F0BB6918331A00114B11001800FEF7D5FE0D
S1131A00BB69DA6A0E4B1B68DB6A9A4205D9BB6A6A
S1131A10002B02D0BB6A01221A607B69180000F017
S1131A2065FAFB691800BD4608B080BD682900004E
S1131A30D8E0FF1FBCE0FF1F0CE0FF1FA0E0FF1F6A
S1131A4008E0FF1F80B586B000AF786039607B681E
S1131A50002B01D172B6FEE77B687B6100F040FA8F
S1131A6003003B610F203B187A694C21525C1A70C9
S1131A707B694C22022199547B699B6C5A1C7B69BB
S1131A809A643B181B78012B3CD17B699B6A002B21
S1131A9001D072B6FEE71F4B1B68002B1DD17B697A
S1131AA004331800FEF7D9FE7B69DA6A1A4B1B6807
S1131AB09A4203D97B69DA6A174B1A607B69DA6A3E
S1131AC013009B009B189B00144A9A187B690433EB
S1131AD019001000FEF769FE07E07B6918331A004D
S1131AE00F4B11001800FEF760FE7B69DA6A0D4B9C
S1131AF01B68DB6A9A4205D93B68002B02D03B681D
S1131B0001221A603B69180000F0F0F9C046BD4696
S1131B1006B080BDD8E0FF1FBCE0FF1F0CE0FF1F34
S1131B20A0E0FF1F08E0FF1F80B584B000AF78601D
S1131B307B68BB60BB68002B02D10E4B1B6800E0C6
S1131B40BB68BB6000F0A2F9BB684C229B5CDBB2B3
S1131B50022B06D1BB684C22002199540123FB605F
S1131B6001E00023FB6000F0A3F9FB681800BD4608
S1131B7004B080BD08E0FF1F80B588B000AF786076
S1131B8000237B61FFF722F83D4B1B68002B04D137
S1131B9000F0C9F83A4B01221A607B68002B0DD083
S1131BA008231A007B689B187B607B68072213401C
S1131BB004D07B680722934308337B607B68002B47
S1131BC056D07B682F4A934252D82F4BBB612E4B81
S1131BD01B68FB6104E0FB69BB61FB691B68FB617B
S1131BE0FB695B687A689A4203D9FB691B68002B1E
S1131BF0F1D1FA69254B9A423AD0BB691B68082295
S1131C009B187B61FB691A68BB691A60FB695A6897
S1131C107B68D31A08225200934222D9FA697B685E
S1131C20D318FB60FB695A687B68D21AFB685A6058
S1131C30FB697A685A60FB685B68BB60124B3B6166
S1131C4002E03B691B683B613B691B685B68BA68DF
S1131C509A42F6D83B691A68FB681A603B69FA68CD
S1131C601A600B4B1A68FB695B68D21A084B1A603E
S1131C70FEF7B8FF7B691800BD4608B080BDC046BA
S1131C80EC100020F72F0000DC100020E4100020EE
S1131C9000E0FF1F80B586B000AF78607B683B61D1
S1131CA07B68002B27D008235B423A69D3183B6139
S1131CB03B69FB60FEF78AFFFB685B68BB60104B07
S1131CC07B6102E07B691B687B617B691B685B68E5
S1131CD0BA689A42F6D87B691A68FB681A607B690D
S1131CE0FA681A60FB685A68064B1B68D218054BE1
S1131CF01A60FEF777FFC046BD4606B080BDC046F9
S1131D00DC10002000E0FF1F80B500AF024B1B6811
S1131D101800BD4680BDC04600E0FF1F80B500AF7F
S1131D20C046BD4680BD80B582B000AF0D4B0722D2
S1131D3093437B600C4B7A681A600B4B00225A6009
S1131D400A4B0B4A5A60094B00221A607B683B60BD
S1131D503B68074A5A603B68044A1A60C046BD465D
S1131D6002B080BDE4E0FF1FDC100020E41000207E
S1131D70F82F000080B584B000AFF860B9607A60D5
S1131D80FB68043BFB60FB68802252041A60FB681A
S1131D90043BFB60BA68FB681A60FB68043BFB60A9
S1131DA0084AFB681A60FB68143BFB607A68FB68AE
S1131DB01A60FB68203BFB60FB681800BD4604B05A
S1131DC080BDC046C91D000080B500AF034B1B6831
S1131DD0013301D072B6FEE772B6FEE704E0FF1FDE
S1131DE080B500AFC046BD4680BD064A136818687A
S1131DF0203080F30988022080F314883FBCAE466B
S1131E0062B600BD08E0FF1FC04680B500AF0D4BB1
S1131E101A680C4BFF2109040A431A60094B1A681B
S1131E20084BFF2109060A431A6000F09FF8064B8D
S1131E3000221A60FFF7D9FFFFF7C6FF002318003E
S1131E40BD4680BD20ED00E004E0FF1F80B500AF7B
S1131E50054B1A68FA239B009A4201D072B6FEE73A
S1131E60C046BD4680BDC04604E0FF1F80B500AF3C
S1131E70054B802252051A60BFF34F8FBFF36F8F5B
S1131E80C046BD4680BDC04604ED00E080B500AF4D
S1131E9072B6064B1B685A1C044B1A60BFF34F8F73
S1131EA0BFF36F8FC046BD4680BDC04604E0FF1F30
S1131EB080B500AF094B1B68002B01D172B6FEE759
S1131EC0064B1B685A1E054B1A60044B1B68002BFB
S1131ED000D162B6C046BD4680BDC04604E0FF1FC7
S1131EE0EFF3108072B670470023180080F3108857
S1131EF07047C046EFF309800E4B1A682038106013
S1131F00F0C044464D4656465F46F0C008B572B62A
S1131F10FEF7CAFF62B60CBC116808681030F0C83E
S1131F20A046A946B246BB4680F309882038F0C8CB
S1131F301847C04608E0FF1FC04680B582B000AF16
S1131F40FFF7CEFF03007B60FEF7F8FE031E03D00D
S1131F50054B802252051A607B681800FFF7C6FF04
S1131F60C046BD4602B080BD04ED00E080B500AFC0
S1131F70044B054A1A60054B07221A60C046BD4649
S1131F8080BDC04614E000E07FBB000010E000E02C
S1131F9080B500AF494A88235B010021D150474AEC
S1131FA0474BD3584549474A1343454A8B50464B00
S1131FB01A68454B802109020A431A60424B1A6889
S1131FC0414B80218A431A60404B0022DA613F4B27
S1131FD000221A623D4B00229A623C4B0022DA62D4
S1131FE03A4B00225A65394B00229A65374B00223E
S1131FF0DA65374B00225A64354B00229A64354B1C
S113200000221A60344B00221A61334B00225A61B9
S11320102D4B324A1A602C4B00225A602A4B002264
S11320209A60294B2E4A1A61274B2E4A5A61264B35
S1132030C02212039A61244B2B4ADA61224B0022FC
S11320401A62214B00225A621F4B00229A621E4BD5
S11320500022DA621C4B254A1A631B4B00225A6386
S1132060194B00229A63184B0022DA63164B0022A4
S11320701A64154B00225A64134B11229A64124BB2
S11320800022DA64104B00221A650F4B22225A6593
S11320900D4B00229A650C4B0022DA650A4B1A6834
S11320A0094B13490A401A60074B1A68064B8021F2
S11320B00A431A60C046BD4680BDC0460070044055
S11320C038100000003C08000030054000A0044027
S11320D000B0044000C0044000D004406384B00059
S11320E0800D0E00600130000001100000008844E3
S11320F0FF7FFFFF80B582B000AF0200FB1D1A70A6
S1132100BB1D0A1C1A70BB1D1B78042B03D90120AC
S113211000F0B4FA9CE1FB1D1B780F2B00D994E16D
S11321209A00CD4BD3181B689F46CC49BB1D1B7826
S1132130013B5B00CA4AD35C2022CB189B18BB220C
S11321401A70C649BB1D1B785B00013BC44AD35CB3
S11321502022CB189B18EE221A7079E1BF49BB1DCF
S11321601B78013B5B00BE4AD35C2022CB189B1832
S113217000221A70B949BB1D1B785B00013BB84AA9
S1132180D35C2022CB189B1866221A7060E1B349F5
S1132190BB1D1B78013B5B00B14AD35C2022CB18EA
S11321A09B1877221A70AD49BB1D1B785B00013B5D
S11321B0AB4AD35C2022CB189B18CC221A7047E17F
S11321C0A649BB1D1B78013B5B00A54AD35C2022BA
S11321D0CB189B1855221A70A049BB1D1B785B00B5
S11321E0013B9F4AD35C2022CB189B18EE221A7025
S11321F02EE19A49BB1D1B78013B5B00984AD35CD6
S11322002022CB189B18CC221A709449BB1D1B7832
S11322105B00013B924AD35C2022CB189B186622B8
S11322201A7015E18D49BB1D1B78013B5B008C4A7C
S1132230D35C2022CB189B18DD221A708749BB1D62
S11322401B785B00013B864AD35C2022CB189B1889
S1132250AA221A70FCE08149BB1D1B78013B5B007C
S11322607F4AD35C2022CB189B18FF221A707B492B
S1132270BB1D1B785B00013B794AD35C2022CB1841
S11322809B18AA221A70E3E07449BB1D1B78013B1A
S11322905B00734AD35C2022CB189B1800221A706F
S11322A06E49BB1D1B785B00013B6D4AD35C202249
S11322B0CB189B18EE221A70CAE06849BB1D1B7824
S11322C0013B5B00664AD35C2022CB189B18FF229B
S11322D01A706249BB1D1B785B00013B604AD35CEA
S11322E02022CB189B18EE221A70B1E05B49BB1D6B
S11322F01B78013B5B005A4AD35C2022CB189B1805
S1132300CC221A705549BB1D1B785B00013B544A13
S1132310D35C2022CB189B18EE221A7098E04F4908
S1132320BB1D1B78013B5B004D4AD35C2022CB18BC
S11323309B18EE221A704949BB1D1B785B00013BB8
S1132340474AD35C2022CB189B18EE221A707FE0F8
S11323504249BB1D1B78013B5B00414AD35C2022F0
S1132360CB189B18FF221A703C49BB1D1B785B00DD
S1132370013B3B4AD35C2022CB189B1822221A70C3
S113238066E03649BB1D1B78013B5B00344AD35CD5
S11323902022CB189B18BB221A703049BB1D1B7816
S11323A05B00013B2E4AD35C2022CB189B18882269
S11323B01A704DE02949BB1D1B78013B5B00284A7C
S11323C0D35C2022CB189B1877221A702349BB1D9B
S11323D01B785B00013B224AD35C2022CB189B185C
S11323E066221A7034E01D49BB1D1B78013B5B005B
S11323F01B4AD35C2022CB189B18FF221A70174962
S1132400BB1D1B785B00013B154AD35C2022CB1813
S11324109B1888221A701BE01049BB1D1B78013BD6
S11324205B000F4AD35C2022CB189B18EE221A7053
S11324300A49BB1D1B785B00013B094AD35C20227F
S1132440CB189B1888221A7002E0012000F016F9BC
S1132450BD4602B080BDC04684290000003005405E
S11324607C29000090B583B000AF0200BB1D1A8028
S1132470BB1D1B88374A934203D9102000F0FEF895
S113248063E0BB1D1B88FA229100180000F02EF9AE
S113249003009BB2DBB201211800FFF72BFEBB1D2A
S11324A01C88BB1D1B88FA229100180000F01EF93D
S11324B003009BB21A0013009B059B1A9B019B18F7
S11324C05B009B18DB00E3186421180000F098F906
S11324D00300DBB202211800FFF70CFEBB1D1C88B1
S11324E0BB1D1B886421180000F000F903009BB297
S11324F01A0013005B069B1A9B009B18DB009B1AB7
S11325009B00E3180A21180000F07AF90300DBB2FB
S113251003211800FFF7EEFDBB1D1B88DCB2BB1DB9
S11325201B880A21180000F0E1F803009BB2DBB21B
S11325301A1C5201D21A9200D31ADB18DBB2E31828
S1132540DBB204211800FFF7D5FDC046BD4603B039
S113255090BDC0460F27000080B582B000AF0200D6
S1132560BB1D1A80BB1D1B881B0B9BB2DBB2012158
S11325701800FFF7BFFDBB1D1B881B12DBB20F2227
S11325801340DBB202211800FFF7B4FDBB1D1B880A
S11325901B11DBB20F221340DBB203211800FFF73B
S11325A0A9FDBB1D1B88DBB20F221340DBB2042143
S11325B01800FFF79FFDC046BD4602B080BD80B540
S11325C082B000AF0200FB1D1A70BB1D0A1C1A70FA
S11325D0FB1D1B7863229A429B415B42DAB2BB1D0E
S11325E01B78632199429B415B42DBB21343DBB20C
S11325F0002B03D0102000F041F839E0FB1D1B78BC
S11326000A21180000F072F80300DBB2012118005F
S1132610FFF770FDFB1D1B780A21180000F0E0F89D
S11326200B00DBB202211800FFF764FDBB1D1B7811
S11326300A21180000F05AF80300DBB20321180045
S1132640FFF758FDBB1D1B780A21180000F0C8F8DD
S11326500B00DBB204211800FFF74CFD064A2B23C4
S1132660D35CDBB2044A11210B43D9B22B23D154DE
S1132670C046BD4602B080BD0030054080B582B082
S113268000AF0200FB1D1A70174A4523FF21D154E5
S1132690154A31238821D154134A27236621D15462
S11326A0114A28230021D1540F4A55236621D154BD
S11326B00D4A46230021D154FB1D1B780F2B06D84D
S11326C0FB1D1B7804211800FFF714FD07E0064AE0
S11326D02A230021D154044A2B230021D154C0467B
S11326E0BD4602B080BDC04600300540012051E225
S11326F01EFF2F013600003A010050E12200009A2B
S1132700020011E12300000A0E0211E38111A0016D
S11327100830A0030130A013010251E3000051313D
S11327200112A0310332A031FAFFFF3A020151E352
S1132730000051318110A0318330A031FAFFFF3AFB
S11327400020A0E3010050E1010040200320822189
S1132750A10050E1A1004020A3208221210150E1E9
S11327602101402023218221A10150E1A101402027
S1132770A3218221000050E32332B0112112A011C1
S1132780EFFFFF1A0200A0E11EFF2FE10100A003EA
S11327900000A0131EFF2FE1010851E32118A0211E
S11327A01020A0230020A033010C51E32114A02108
S11327B008208222100051E32112A0210420822249
S11327C0040051E303208282A12082903002A0E120
S11327D01EFF2FE1000050E30000E013590000EA5F
S11327E0000051E3FAFFFF0A03402DE9BEFFFFEBAF
S11327F00640BDE8920003E0031041E01EFF2FE114
S1132800000051E34300000A01C020E000106142CF
S1132810012051E22700000A0030B0E1003060429C
S1132820010053E12600009A020011E12800000A89
S11328300E0211E38111A0010820A0030120A013BE
S1132840010251E3030051310112A0310222A031EF
S1132850FAFFFF3A020151E3030051318110A03124
S11328608220A031FAFFFF3A0000A0E3010053E107
S11328700130432002008021A10053E1A130432014
S1132880A2008021210153E1213143202201802132
S1132890A10153E1A1314320A2018021000053E3AF
S11328A02222B0112112A011EFFFFF1A00005CE3F5
S11328B0000060421EFF2FE100003CE10000604286
S11328C01EFF2FE10000A033CC0FA0010100800304
S11328D01EFF2FE1010851E32118A0211020A0239D
S11328E00020A033010C51E32114A02108208222EE
S11328F0100051E32112A02104208222040051E39C
S113290003208282A120829000005CE33302A0E1D4
S1132910000060421EFF2FE1000050E30201E0C30B
S11329200201A0B3070000EA000051E3F9FFFF0A27
S113293003402DE9B3FFFFEB0640BDE8920003E03E
S1132940031041E01EFF2FE11EFF2FE149444C45D7
S113295000000000781800003E1800004C18000029
S11329605818000060180000941900005A1900005B
S113297068190000741900007C190000251107086B
S113298035260A0B2A2100005C2100008E2100005C
S1132990C0210000F2210000242200005622000081
S11329A088220000BA220000EC2200001E2300004E
S11329B05023000082230000B4230000E62300001B
S10729C018240000D3
S10F29C40DC0A0E1F8DF2DE904B04CE2E6
S10F29D00DC0A0E1F8DF2DE904B04CE2DA
S10B29DCF82F0000AAAAAAAA20
S9030410E8
