S00C00006D61696E2E7372656373
S113000078E4FF1F3104000095040000950400000B
S113001000000000000000000000000000000000DC
S11300200000000000000000000000009504000033
S1130030000000000000000095040000950400008A
S113004031040000310400003104000031040000D8
S113005000000000310400003104000031040000FD
S113006031040000310400003104000031040000B8
S113007031040000310400003104000031040000A8
S11300803104000031040000310400003104000098
S113009031040000310400003104000000000000BD
S11300A03104000031040000310400003104000078
S11300B0310400000000000031040000310400009D
S1130400FFFFFFFFFFFFFFFFFFFFFFFFFEFFFFFFF9
S113041080B500AF00F066F900F0CAF800F05AF8B1
S1130420024B180004F062FFFEE7C046206800009B
S113043080B582B000AF00F07BF9114B7B60114BAB
S11304403B6007E07A68131D7B603B68191D3960C7
S113045012681A603A680C4B9A42F3D30B4B3B6018
S113046004E03B681A1D3A6000221A603A68084B9F
S11304709A42F6D3FFF7CCFFC046BD4602B080BD1A
S1130480EC71000000E0FF1F0CE0FF1F0CE0FF1FF9
S113049078E0FF1F80B500AFFEE7C04680B582B0AC
S11304A000AF7860084A094BD358094A1A407B6860
S11304B09906C0231B050B4003491343034A8B5081
S11304C0C046BD4602B080BD007004400410000068
S11304D0FFFFFFF380B582B000AF0120FFF7DEFF1E
S11304E000F058FC03007B607B68E1225102044861
S11304F0032204F0C5FEC046BD4602B080BDC0461E
S113050000A0064080B500AF034A044B0449D15013
S1130510C046BD4680BDC046007004404410000083
S11305200000031080B582B000AF7860034B7A6896
S11305301A60C046BD4602B080BDC0460CE0FF1F35
S113054080B582B000AF78600A00FB1C1A707B682B
S1130550FA1C12781A70C046BD4602B080BD80B540
S113056082B000AF78607B68DB78DBB21800BD46F0
S113057002B080BD80B582B000AF0200FB1D1A70CE
S11305800A4B1B78DBB238229343DAB2FB1D1B788B
S1130590DB00DBB238210B40DBB204491343DBB28E
S11305A00B70C046BD4602B080BDC0460040064048
S11305B080B500AFFFF7A6FF104B180001F0E8F874
S11305C00F4B1800FFF7AEFF00231800FFF7D2FF10
S11305D00C4B1A000021002001F02EFE0223002102
S11305E00022180000F03BFE074B180000F0E4FC6A
S11305F0064B074A1A60C046BD4680BD44680000E9
S113060000127A00376800003C68000000E0FF1F19
S1130610006CDC0280B500AFFFF774FF00230121FA
S11306200222180001F08EFD0D4B180000F0C4FCEE
S11306300C4B2A211800FFF783FF0A4B180003F024
S113064019FBC046074B1800FFF789FF0300042B72
S1130650F8D1054B054A1A60C046BD4680BDC04668
S11306605868000000E0074000E0FF1F00093D005B
S113067080B584B000AF78607B681B0C084A944650
S11306806344FB60FB6819687B681B041B0C012234
S11306909A40FB680A431A60C046BD4604B080BD58
S11306A00070044080B584B000AFF860B960FB1DF1
S11306B01A70FB68BA689200D358094A1A40FB1DA5
S11306C01B781902E023DB000B401A431100FB687E
S11306D0BA689200D150C046BD4604B080BDC04641
S11306E0FFF8FFFF80B500AF0D4B1800FFF7C0FF08
S11306F00C4B022201211800FFF7D4FF094B022200
S113070002211800FFF7CEFF074A084BD3580649C9
S113071007229343054A8B50C046BD4680BDC04660
S113072009003810009004400070044010100000CC
S113073080B500AF044A88235B010021D15000F04A
S11307402BF9C046BD4680BD0070044080B582B020
S113075000AF894B1B78DBB21A00C023134000D0D2
S1130760C3E0854B5B79DBB21A004023134000D011
S113077099E0814B1B78DBB21A00042313403AD171
S11307807E4B7B607C4B5B78DBB21A0030231340DA
S11307901ED0794B1B78DBB21A0038231340302B60
S11307A006D0382B09D1BB1CC022D2001A8019E014
S11307B0BB1CA022D2001A8014E06F4B1B78DBB262
S11307C0DB080722134020229A40BB1C1A8009E050
S11307D0694B1B78DBB2DB080722134001229A40E5
S11307E0BB1C1A80BB1C1B881900786805F0CEFD61
S11307F003007B6002E080231B027B605E4BDB789E
S1130800DBB21A00E0231340E02B47D000D99DE06F
S1130810C02B3ED000D999E0A02B34D000D995E06C
S1130820802B2AD000D991E0602B1FD000D98DE015
S1130830402B14D000D989E0002B02D0202B07D004
S113084084E07A6813009B009B18DB017B607EE0E8
S11308507A6813009B009B181B027B6077E07A6820
S113086013001B019B1ADB017B6070E07A681300A4
S11308709B009B185B027B6069E07B68B722920057
S113088053437B6063E07B68B722D20053437B60B1
S11308905DE07B683A4A53437B6058E07B68394AA1
S11308A053437B6053E0344B1B79DBB29BB21F2272
S11308B013409AB2BB1C01321A80BB1C1B8819005E
S11308C02E4805F063FD03007B602B4B5B79DBB2A4
S11308D09BB21F2213409AB2BB1C18321A80BB1C55
S11308E01A887B6853437B6031E0234B1B78DBB26F
S11308F01A00C0231340402B1DD11F4B5B78DBB281
S11309001A000123134003D180231B027B601EE0E5
S1130910194B1B7ADBB25B080722134001229A4071
S1130920BB1C1A80BB1C1B881900174805F02EFD40
S113093003007B600BE0104B1B78DBB21A00C02372
S11309401340802B13D10D4B7B6000E0C0460F4A4F
S11309500F4BD3581B0F0F22134001331900786833
S113096005F014FD03001A000A4B1A6000E0C046AB
S1130970BD4602B080BDC0460040064000127A0069
S113098095080000710B000000093D000070044050
S11309904410000000E0FF1F80B500AFC046BD4614
S11309A080BDC04680B584B000AF78607B681B0C06
S11309B0084A94466344FB60FB6819687B681B041F
S11309C01B0C01229A40FB680A431A60C046BD46CC
S11309D004B080BD0070044080B584B000AF78607E
S11309E07B681B0C094A94466344FB60FB681A68E5
S11309F07B681B041B0C012199400B00D943FB6845
S1130A000A401A60C046BD4604B080BD0070044070
S1130A1080B582B000AF7860084B1B68084A134069
S1130A2019007B689A04C0231B031A40034B0A4332
S1130A301A60C046BD4602B080BDC0460070044086
S1130A40FFFFF3FF80B582B000AF7860084A094B1E
S1130A50D358094A1A407B68190480235B020B406F
S1130A6003491343034A8B50C046BD4602B080BDC0
S1130A700070044004100000FFFFFEFF80B584B046
S1130A8000AF786039600F203B187A6812781A70CA
S1130A903B183A1812785F210A401A703B6819789B
S1130AA03B183A1812780A431A707B683A1812787D
S1130AB01A70C046BD4604B080BD80B584B000AF96
S1130AC078600A00FB1C1A700F203B187A681278B1
S1130AD01A703B183A1812780F218A431A703B187F
S1130AE03918FA1C097812780A431A707B683A1884
S1130AF012781A70C046BD4604B080BD80B582B07D
S1130B0000AF074B7B6000E0C0467B685A1E7A60EA
S1130B10002BF9D1C046C046BD4602B080BDC046D8
S1130B203075000080B500AF074B1B68002B05D162
S1130B30064B074A0748EE2104F08EFB024B1B6864
S1130B401800BD4680BDC0460CE0FF1F6868000069
S1130B50406900007468000080B582B000AFFFF700
S1130B60E1FF03007B607B68002B01D17B6841E0DF
S1130B70224B1B78DBB2DB08DAB2FB1C07210A40EC
S1130B801A70FB1C1B787A68DA4013007B601B4BDD
S1130B905B78DBB21B09DAB2BB1C03210A401A7072
S1130BA0BB1C1B78002B23D0FB1C1B78072B14D0F9
S1130BB01BDC052B02DC002B03DA16E0062B04D029
S1130BC013E07B685B097B6013E07B6814211800E9
S1130BD005F0DCFB03007B600BE07B680C21180054
S1130BE005F0D4FB03007B6003E000237B6000E09E
S1130BF0C0467B681800BD4602B080BD0040064078
S1130C0080B500AF0B4B9B79DBB21A000123134074
S1130C1002D1094B1B6809E0084B1A68054B1B7A83
S1130C20DBB25B0807210B40DA4013001800BD4615
S1130C3080BDC0460040064004E0FF1F08E0FF1FDF
S1130C4080B500AF074B9B79DBB21A001023134029
S1130C5003D1FFF781FF030001E0034B1B68180079
S1130C60BD4680BD0040064004E0FF1F80B500AFD4
S1130C70FFF758FF03001800BD4680BD80B584B05F
S1130C8000AF78607B680E4A934204D80F23FB18A8
S1130C9000221A700CE07B680A4A934204D80F239E
S1130CA0FB1801221A7003E00F23FB1802221A70AA
S1130CB00F23FB181B781800BD4604B080BDC04646
S1130CC09798000000127A0080B500AF0B4B1B7898
S1130CD0DBB25BB2002B0DDA094B1B68002B06D18B
S1130CE0084B094A6221FF31084804F0B5FA044B65
S1130CF01B6800E000231800BD4680BD005006407C
S1130D000CE0FF1F68680000586900007468000068
S1130D1080B582B000AF1A4B1B689B0C03221340B2
S1130D20032B21D024D8002B02D0022B0DD01FE09E
S1130D30FFF7CAFF020080231B029A4202D18023DC
S1130D401B0200E000237B6015E00E4B1B68002BA8
S1130D5006D10D4B0D4A7621FF310D4804F07CFA83
S1130D60084B1B687B6006E0FA239B007B6002E073
S1130D7000237B60C0467B681800BD4602B080BD7E
S1130D800070044010E0FF1F8868000070690000D4
S1130D907468000080B582B000AF0F4A0F4BD3587F
S1130DA01B0C0122134002D0012B05D00CE000F0F3
S1130DB09DF903007B600AE000F006FA03007B6003
S1130DC07B685B087B6002E000237B60C0467B6835
S1130DD01800BD4602B080BD00700440041000003D
S1130DE080B500AF00F046F9064A074BD3581B0FF5
S1130DF00F2213400133190005F0C8FA030018004C
S1130E00BD4680BD007004404410000080B582B02F
S1130E1000AF00F02FF90F4A0F4BD3581B0F0F22CE
S1130E2013400133190005F0B1FA03007B60094A4D
S1130E30094BD3581B0C072213400133190078685F
S1130E4005F0A4FA03007B607B681800BD4602B07D
S1130E5080BDC046007004404410000080B582B0DC
S1130E6000AF00F007F90F4A0F4BD3581B0F0F22A6
S1130E7013400133190005F089FA03007B60094A25
S1130E80094BD3581B0C072213400133190078680F
S1130E9005F07CFA03007B607B681800BD4602B055
S1130EA080BDC046007004404410000080B500AF0F
S1130EB000F0E0F8064A074BD3581B0F0F221340EB
S1130EC00133190005F062FA03001800BD4680BD25
S1130ED0007004404410000080B584B000AF0200EC
S1130EE0FB1D1A70FB1D1B780C2B56D89A002F4B38
S1130EF0D3181B689F4600F0BDF82D4A2D4BD358DC
S1130F001B0F0F2213400133190005F03FFA0300B1
S1130F10FB6045E000F0AEF8254A264BD3581B0F82
S1130F200F2213400133190005F030FA0300FB606F
S1130F301F4A204BD3581B0C0722134001331900BE
S1130F40F86805F023FA0300FB6029E0FFF722FFAD
S1130F500300FB6024E0FFF7DBFE0300FB601FE0FF
S1130F6000F01AF90300FB601AE000F001F9030035
S1130F70FB6015E000F0BAF80300FB6010E000F03D
S1130F8023F90300FB600BE0FA239B00FB6007E0FE
S1130F90FFF79AFE0300FB6002E00023FB60C046FB
S1130FA0FB681800BD4604B080BDC04698680000C8
S1130FB0007004404410000080B582B000AF786037
S1130FC009497B685B68094A8B507B681B78180069
S1130FD0FFF738FD7B685B781800FFF719FDC04602
S1130FE0BD4602B080BDC0460070044044100000FD
S1130FF080B584B000AF786039600F23FB180122FC
S11310001A70164B1800FFF7E7FC7B68002B08D119
S1131010134A144BD3581249134A1340114A8B50A4
S113102011E03B68114A934203D00F23FB180022BE
S11310301A700B4A0B4BD3580D4A1A4008497B6867
S11310401343084A8B50054B1800FFF7ABFC0F23E2
S1131050FB181B781800BD4604B080BD1200341084
S11310600070044004100000FFFFFBFF006CDC0272
S1131070FFFFFAFF80B582B000AF1B4B9B79DBB258
S11310809B08032213403B603B68032B0FD03B6853
S1131090032B20D83B68022B18D03B68022B1AD8AC
S11310A03B68002B08D03B68012B0AD013E000F00A
S11310B08BF803007B6011E000F018F803007B60FC
S11310C00CE0FFF79DFD03007B6007E0FFF72AFDBE
S11310D003007B6002E000237B60C0467B6818004D
S11310E0BD4602B080BDC0460040064080B582B017
S11310F000AF1D4B5B78DBB21A000223134006D10C
S1131100194B9B79DBB21A002023134001D0002332
S113111026E0FFF795FD03007B607B68002B01D17F
S11311207B681DE0104BDB78DBB25B09DAB2FB1C99
S113113003210A401A700C4BDB78DBB2DB09DAB20C
S1131140BB1C01210A401A70FB1C1978BB1C1A78BD
S1131150064B49008A185200D35A1A007B6853433D
S11311601800BD4602B080BD0040064088690000FA
S113117080B500AF074B1B78DBB21A000223134083
S113118001D1002302E0FFF73BFD03001800BD4638
S113119080BDC0460040064080B582B000AFFFF776
S11311A04FFD03007B607B68002B08D0FFF762FFD4
S11311B00300DB087A689A4201D87B6800E00023C8
S11311C01800BD4602B080BD80B582B000AF194B97
S11311D09B79DBB21A004023134001D1002325E0A0
S11311E0FFF744FD03007B607B68002B05D1124BA5
S11311F0124A1349134804F02FF80E4B1B79DBB243
S11312001A001F23134001331900786805F0BEF853
S113121003007B60074B5B79DBB21A001F2313408A
S113122018331A007B6853437B607B681800BD4603
S113123002B080BD00400640CC6800009869000000
S1131240610200007468000080B582B000AF020043
S1131250FB1D1A7000231800BD4602B080BD90B576
S113126085B000AF040008001100FB1D221C1A7099
S1131270BB1D021C1A707B1D0A1C1A70404B9B7903
S1131280DBB29B0803221340FB603D4B9B79DAB22F
S11312900B203B1801210A401A70394B1B7ADBB230
S11312A05B08DAB20A243B1907210A401A707A1D36
S11312B03B1912781B789A422ED03B181B78012BCD
S11312C019D1FB68012B06D02D4B1B78DBB21A0019
S11312D0022313400FD02A4B5B78DBB2284A01214A
S11312E08B43DBB25370C046254B9B79DBB21A00AB
S11312F001231340F8D1224B1B7ADBB22F229343F4
S1131300DAB27B1D1B78DB18DBB20E210B40DBB29B
S11313101B491343DBB20B72194B5B78DBB201221E
S11313209343DAB2BB1D1B7801210B40DBB2144995
S11313301343DBB24B70124B1B78DBB20322934393
S1131340DAB20F49FB1D1B781343DBB20B70FB6849
S1131350012B04D0FB1D1B78022213400AD0C04687
S1131360074B9B79DBB21A0001231A40BB1D1B7883
S11313709A42F5D100231800BD4605B090BDC04681
S11313800040064090B58BB000AFF860B9607A6059
S11313903B600023FB6101235B423B62FB68644AC0
S11313A0934203D9FB68634A934201D90023BAE00C
S11313B0FB686149180004F0E9FF03001A001B24CC
S11313C03B191A70FB685D4A944663445C491800F3
S11313D004F0DCFF03001A001A23FB181A702523FB
S11313E0FB183A1912781A7075E025243B191B78FA
S11313F01900F86804F0CAFF03007B617969B868D2
S113140004F0C4FF03001A0013217B181A707B1820
S11314101B78162B58D97B181B78372B54D87B187C
S11314201A787B695343FB617B181B78172B27D9E8
S1131430FA69BB689A420DD13B191B78013BDAB2B9
S11314407B681A707B181B78183BDAB23B681A70F9
S1131450FB6968E0BA68FB69D31A3A6A9A420FD901
S1131460BA68FB69D31A3B622723FB182522BA18F2
S113147012781A702623FB181322BA1812781A70DD
S113148013217B181A787B1801321A707B181B7889
S1131490372B1AD8FA697B69D318FB61FA69BB68E0
S11314A0D31A3A6A9A4210D9FA69BB68D31A3B62D2
S11314B02723FB182522BA1812781A702623FB1842
S11314C07A1812781A7000E0C04625217B181A7821
S11314D07B18013A1A702523FA181A23FB1812787C
S11314E01B789A4281D23B6A01331BD027217B1897
S11314F01B78013BDAB27B681A7026243B191B78EF
S1131500183BDAB23B681A707B181B781900F8682C
S113151004F03CFF03001A003B191B785343FB61A2
S1131520FB6900E000231800BD460BB090BDC04627
S11315307F841E0000E1F50580841E00FF083D0045
S113154000093D0080B584B000AF78607B68002B53
S113155006D1204B204AC1218900204803F07CFE9B
S11315600F203B1800221A707B685B781F221340FF
S1131570D9B23B183A1812780A431A70184A3B1821
S11315801B781371164B5B79DBB21F229343DAB2DB
S11315907B689B781F210B40DBB211491343DBB2FC
S11315A04B710F4B1B79DAB27B681B781343DBB2A8
S11315B00B4A40210B43DBB21371C046084B9B79A5
S11315C0DBB21A0040231340F8D0C046C046BD46E3
S11315D004B080BDD8680000AC69000074680000E5
S11315E00040064080B582B000AF0200FB1D1A70B7
S11315F01B4B1B7ADBB21A4A20218B43DBB21372DA
S1131600FB1D1B78002B08D1154B5B79DBB2144A08
S113161020218B43DBB253711DE0FB1D1B78012B92
S113162008D10F4B5B78DBB20D4A7F210B40DBB254
S1131630537008E00A4B5B78DBB2094980225242BE
S11316401343DBB24B70064B5B79DBB2044A2021B7
S11316500B43DBB25371C046BD4602B080BDC046E9
S11316600040064080B584B000AF0200FB1D1A7034
S11316701C4B80229A71FB1D1B78002B08D1194B3F
S11316805B79DBB2174A7F210B40DBB2537124E054
S1131690144A0F217B18527B1A70FB1D1B78012BF7
S11316A006D17B187A18127840218A431A7006E012
S11316B00F22BB18BA18127840210A431A70094A3B
S11316C00F23FB181B785373064B5B79DBB2054978
S11316D0802252421343DBB24B71C046BD4604B074
S11316E080BDC0460040064080B582B000AF0023F4
S11316F07B60174AFB1C92791A70154B1B7ADBB27C
S11317001A000123134003D07B68012213437B603A
S1131710FB1C1B780222134003D07B680222134374
S11317207B60FB1C1B785BB2002B03DA7B682022F6
S113173013437B60FB1C1B784022134003D07B685F
S1131740402213437B607B681800BD4602B080BD15
S11317500040064080B582B000AF78607B6801220B
S1131760134007D0094B1B7ADBB2084A20218B4374
S1131770DBB213727B682022134002D0034B802219
S11317809A71C046BD4602B080BDC04600400640C6
S1131790B0B584B000AF78607B681B680F257C19F6
S11317A01800FFF76BFA030023707B681B791B4A50
S11317B019001000FFF781F97B680633174A1900F6
S11317C01000FFF75BF9164B5B78DBB23C229343C6
S11317D0DAB27B191B781B01DBB230210B40DBB280
S11317E01343DAB27B685B790D491343DBB24B7068
S11317F07B685B79002B0DD0084B1B78DBB25BB2A6
S1131800002B07DAC046064B9B79DBB21A00022391
S11318101340F8D0C046BD4604B0B0BD00500640E9
S11318200040064080B500AF064B00221A70064BFC
S11318305B78DBB2044A3C218B43DBB25370C04675
S1131840BD4680BD005006400040064080B588B0CB
S113185000AFF860B9607A601A00FB1C1A70FB686C
S11318604A4A934203D8FB68494A934201D8494BF8
S113187087E0FB1C1A78484BD200D358BA689A42C6
S113188009D3FB1C1B78444ADB00D31804331B68C0
S1131890BA689A4201D9414B73E0414B9B79DBB260
S11318A01A0010231340102B01D13E4B69E0B96894
S11318B0F86804F06BFD0300BB61BA6913005B00B8
S11318C09B18DA00D31AFB61FB1C1B78012B02D195
S11318D0FB69DB01FB61324BFA69D2B2DA72FB6954
S11318E01A0A2F4BD2B29A722D4A17203B18127A39
S11318F01A703B183A18127841218A431A70FB1C5B
S11319001B789B01DBB240221340DAB23B181B78F0
S11319101343DAB23B1820210A431A7020493B18BA
S11319201B78802252421343DBB20B72C0461C4B1D
S11319301B7ADBB25BB2002BF9DB194B1B7ADBB2EF
S11319401A002023134006D0154A1723FB181B78CE
S11319501372154B15E0B969F86804F017FD03001C
S11319601A007B681A60FB1C1B78012B04D17B686E
S11319701A680E4B1A6003E07B681A680C4B1A60F5
S113198000231800BD4608B080BDC0460024F40002
S1131990FF117A00D2070000C0690000D3070000DD
S11319A000400640D4070000D507000008E0FF1FF0
S11319B004E0FF1F80B586B000AF1723FB18082290
S11319C01A70354B9B79DBB29B08032213403B61B1
S11319D0314B9B79DBB21B0901221340FB602E4B78
S11319E05B78DBB25B0801221340BB602A4B9B7916
S11319F0DBB25B09012213407B603B69032B3ED0C1
S1131A003B69032B40D83B69022B23D03B69022B53
S1131A103AD83B69002B03D03B69012B0DD033E04E
S1131A20FB68002B04D11723FB1803221A702CE047
S1131A301723FB1800221A7027E0BB68002B04D080
S1131A401723FB1802221A701FE01723FB18012228
S1131A501A701AE0BB68002B04D01723FB18052268
S1131A601A7012E07B68012B04D11723FB1806229D
S1131A701A700AE01723FB1804221A7005E01723D2
S1131A80FB1807221A7000E0C0461723FB181B78C6
S1131A901800BD4606B080BD0040064080B584B045
S1131AA000AF3A60FB1D021C1A70BB1D0A1C1A70A1
S1131AB00F217B1800221A702E4A0E23FB18D278AD
S1131AC01A702C4B9B79DBB21A00102313400AD1F5
S1131AD07B1801221A70274BDB78DBB2254A2021C0
S1131AE04B40DBB2D370234B1B78DBB23B22134059
S1131AF0DBB2204A04210B43DBB21370C0461D4BFA
S1131B009B79DBB21B0901221340012BF7D10F2370
S1131B10FB181B78002B04D0164A0E23FB181B78E5
S1131B20D3700E23FB181B781F221340DAB2FB1D5F
S1131B301B78DB01D9B2BB1D1B785B01DBB26020D3
S1131B400340DBB20B43DBB20A491343DBB2CB7075
S1131B50C046084B9B79DBB29B0803221340F8D1A3
S1131B603B68002B01D03B68984700231800BD4612
S1131B7004B080BD0040064090B585B000AF0400BD
S1131B80080011003B60FB1D221C1A70BB1D021CC7
S1131B901A707B1D0A1C1A700F217B1800221A7000
S1131BA03F4A0E23FB18D2781A703D4B9B79DBB267
S1131BB01B0901221340012B0AD17B1801221A7040
S1131BC0374BDB78DBB2364A20214B40DBB2D37093
S1131BD0334B1B78DBB203221340DAB2FB1D1B78B4
S1131BE0DB00DBB238210B40DBB22D491343DBB2FF
S1131BF00B702B4B5B78DBB21A000423134007D025
S1131C00C046274B9B79DBB21A0002231340F8D05D
S1131C10C046234B9B79DBB21A0010231340F8D142
S1131C200F23FB181B78002B04D01D4A0E23FB182E
S1131C301B78D3700E243B191B781F221340D9B292
S1131C40BB1D1B78DB01DAB27B1D1B785B01DBB2A9
S1131C5060200340DBB21343DAB23B190A431A7023
S1131C600F4A3B191B78D370C0460D4BDB78DBB2AF
S1131C700E22BA1812789A42F7D1C046084B9B79C3
S1131C80DBB29B0803221340F8D13B68002B01D040
S1131C903B68984700231800BD4605B090BDC04678
S1131CA00040064080B584B000AF3A60FB1D021CC2
S1131CB01A70BB1D0A1C1A700F203B1800221A70E0
S1131CC0334A0E23FB18D2781A70314B5B78DBB29F
S1131CD02F4A02218B43DBB253702D4B9B79DBB22D
S1131CE01A00102313400AD13B1801221A70284B02
S1131CF0DB78DBB2264A20214B40DBB2D370244B85
S1131D001B78DBB23B221340DBB2214A44210B4354
S1131D10DBB21370C0461E4B9B79DBB21B09012258
S1131D201340012BF7D10F23FB181B78002B04D091
S1131D30174A0E23FB181B78D370C046144B9B79AB
S1131D40DBB29B0803221340012BF7D10E23FB18AF
S1131D501B781F221340DAB2FB1D1B78DB01D9B2BA
S1131D60BB1D1B785B01DBB260200340DBB20B437D
S1131D70DBB207491343DBB2CB703B68002B01D0C5
S1131D803B68984700231800BD4604B080BDC04698
S1131D900040064090B585B000AF04000800110073
S1131DA03B60FB1D221C1A70BB1D021C1A707B1D9C
S1131DB00A1C1A700F23FB1800221A70474B5B7918
S1131DC0DBB2464A40218B43DBB25371C046434BDE
S1131DD09B79DBB21A0020231340F8D13F4B5B7888
S1131DE0DBB23E4A02218B43DBB253703B4A0E23E3
S1131DF0FB18D2781A70394B9B79DBB21B0901228C
S1131E001340012B0BD10F23FB1801221A70334B03
S1131E10DB78DBB2314A20214B40DBB2D3702F4B4D
S1131E201B78DBB203221340DAB2FB1D1B78DB0004
S1131E30DBB238210B40DBB21343DBB227498022EB
S1131E4052421343DBB20B70244B5B78DBB21A00B3
S1131E500423134007D0C046204B9B79DBB21A0001
S1131E6002231340F8D0C0461C4B9B79DBB21A0006
S1131E7010231340F8D10F23FB181B78002B04D038
S1131E80164A0E23FB181B78D3700E243B191B78BB
S1131E901F221340D9B2BB1D1B78DB01DAB27B1DB4
S1131EA01B785B01DBB260200340DBB21343DAB280
S1131EB03B190A431A70C046084B9B79DBB29B0856
S1131EC003221340022BF7D13B68002B01D03B685F
S1131ED0984700231800BD4605B090BD0040064059
S1131EE080B500AF054B5B78DBB2044A02210B439B
S1131EF0DBB2537000231800BD4680BD004006408D
S1131F0080B500AF054B5B78DBB2044A02210B437A
S1131F10DBB2537000231800BD4680BD004006406C
S1131F2080B582B000AF02003960FB1D1A703B68B7
S1131F30002B06D1264B274AAE21C900264803F0C0
S1131F408BF9264B5B78DBB2244A02218B43DBB24C
S1131F505370224B1B78DBB23B221340DBB21F4988
S1131F60802252421343DBB20B70C0461B4B9B7959
S1131F70DBB21A001C231340082BF7D1174B5B79F3
S1131F80DBB2164A40218B43DBB25371C046134B7C
S1131F909B79DBB21A0020231340F8D13B68180068
S1131FA0FFF7D0FA0D4B5B79DBB20C4A40210B43AF
S1131FB0DBB25371C046094B9B79DBB21A00202374
S1131FC01340F8D000231800BD4602B080BDC046BF
S1131FD0D8680000D0690000746800000040064022
S1131FE080B500AF0A4B1B78DBB2094A3F210B4096
S1131FF0DBB21370C046064B9B79DBB29B0803220D
S11320001340032BF7D100231800BD4680BDC04602
S11320100040064080B500AF184B5B78DBB2174A2E
S113202002218B43DBB25370144B1B78DBB23F228B
S11320301340DBB21149802252421343DBB20B70CE
S1132040C0460E4B9B79DBB29B0803221340022B44
S1132050F7D10A4B5B79DBB2084A40218B43DBB2F0
S11320605371C046054B9B79DBB21A002023134001
S1132070F8D100231800BD4680BDC046004006408C
S113208080B500AF0F4B5B78DBB20E4A02218B4365
S1132090DBB253700B4B1B78DBB23F221340DBB235
S11320A0084A40210B43DBB21370C046054B9B79B1
S11320B0DBB29B0803221340012BF7D10023180045
S11320C0BD4680BD0040064080B582B000AF3A6096
S11320D0FB1D021C1A70BB1D0A1C1A703A68BB1D3A
S11320E01978FB1D1B781800FFF7D8FC03001800B3
S11320F0BD4602B080BDB0B582B000AF05000C0093
S113210010001900FB1D2A1C1A70BB1D221C1A701A
S11321107B1D021C1A703B1D0A1C1A70FB1D1B78C8
S11321201800FFF791F8BC693B1D1A787B1D1978DC
S1132130BB1D18782300FFF71FFD03001800BD46E0
S113214002B0B0BD90B583B000AF04000800110028
S1132150FB1D221C1A70BB1D021C1A707B1D0A1C5D
S11321601A70FB1D1A78BB1D19787B1D1B7818008B
S1132170FFF775F8104B1B78DBB23F221340DBB23C
S11321800D4A40210B43DBB21370C0460A4B9B79C6
S1132190DBB29B0803221340012BF7D1064B5B787B
S11321A0DBB2054A02210B43DBB253700023180053
S11321B0BD4603B090BDC0460040064080B582B025
S11321C000AF0200FB1D1A70FB1D1B781800FFF7FF
S11321D03BF8184B1B78DBB23B221340DBB21549AA
S11321E0802252421343DBB20B70124B5B78DBB29A
S11321F01A000423134007D0C0460E4B9B79DBB270
S11322001A0002231340F8D0C0460A4B9B79DBB274
S11322101A001C231340082BF7D1064B5B78DBB262
S1132220044A02210B43DBB2537000231800BD465D
S113223002B080BD0040064080B582B000AF3A6075
S1132240FB1D021C1A70BB1D0A1C1A703B68002B74
S113225005D1144B144A1549154802F0FDFFFB1D26
S11322601B781800FEF7F0FF3A68BB1D1B781100BD
S11322701800FFF755FE0F4B1B78DBB20D4A3F21C8
S11322800B40DBB21370C0460A4B9B79DBB29B0850
S113229003221340032BF7D100231800BD4602B0DC
S11322A080BDC046D8680000E4690000190600003B
S11322B0746800000040064090B587B000AF7860B5
S11322C000233B610F23FB1800221A70654B9B7996
S11322D0DBB29B0803221340012B0FD1614B5B78C7
S11322E0DBB2604A02218B43DBB253707B6898797E
S11322F07B685B795C4A1900FFF7D0FB7B685878F0
S11323007B6899787B68DB781A00FEF7A8FF1723AF
S1132310FC18FFF74FFB0300237017243B191A78AE
S11323207B681B7818003B195049D2008A18125C4C
S11323301A703B191B78072B6CD89A004C4BD31896
S11323401B689F467B6898797B685B79464A1900CD
S1132350FFF7A4FB03003B615DE07B6818797B68B1
S113236099797B685A79404BFFF706FC03003B617F
S113237051E07B6898797B685B7900221900FFF74C
S113238091FC03003B6146E07B6818797B6899798E
S11323907B685A790023FFF7FDFC03003B613AE0B8
S11323A0FFF79EFD03003B6135E0FFF7A9FD030045
S11323B03B6130E07B681B78072B03D07B681B787C
S11323C0062B0CD17B68DA1D0F23FB181B78110038
S11323D01800FFF7A5FD03003B61C0461BE0214B3D
S11323E01B78DBB23F221340DBB21E4980225242EB
S11323F01343DBB20B70C0461A4B9B79DBB29B08CC
S113240003221340022BF7D105E0FFF7E9FD030097
S11324103B6100E0C0463B69002B01D03B691CE0F6
S11324207B681B781722BA1812789A4200D074E796
S11324307B68DB791A004023134005D07B6807339F
S11324401800FFF77FF807E0064B1B79DBB2054A5B
S113245040218B43DBB2137100231800BD4607B043
S113246090BDC04600400640FD0A0000E068000040
S11324702069000080B582B000AF78607B68002BD3
S113248001D104230CE07B685B68002B02D17B68DC
S1132490054A5A607B685B68180000F08BF80023DB
S11324A01800BD4602B080BD14E0FF1F80B582B0A5
S11324B000AF78600A00FB1C1A70FB1C1B78012219
S11324C05340DBB2002B03D07B68180000F082F885
S11324D000231800BD4602B080BD80B582B000AFB5
S11324E078607B681B78002B10D07B685B780122B6
S11324F05340DBB2002B01D0782323E0134BDA687E
S1132500124B802109020A43DA601AE00F4BDA68A1
S11325100E4B0F490A40DA607B685B780122534016
S1132520DBB2002B07D0094BDA68084B8021C901C4
S11325300A43DA6005E0054BDA68044B05490A40B2
S1132540DA6000231800BD4602B080BD003000F000
S1132550FF7FFFFFFFBFFFFF80B584B000AF78604F
S11325607B6802220021180004F0D8F87B6800225E
S11325701A707B6800225A700D4BDB68FB60FA68A6
S113258080231B02134006D07B6801221A707B68EB
S113259001225A7007E0FA688023DB01134002D15C
S11325A07B6801225A7000231800BD4604B080BD28
S11325B0003000F080B582B000AF786004497B68D9
S11325C01C22180004F058F8C046BD4602B080BD75
S11325D0F869000090B585B000AF7860084BFB60E7
S11325E07B685B680133BB608023D900F868BC68F2
S11325F001230A22A047C046BD4605B090BDC0468F
S11326000C3000F080B582B000AF0200FB1D1A70E0
S1132610FB1D1B787F2B09D8FB1D1B781A001F2379
S11326201A40044B012191400A001A60C046BD467D
S113263002B080BD00E100E080B584B000AF7860F6
S11326407B681B0C084A94466344FB60FB6819686A
S11326507B681B041B0C01229A40FB680A431A6026
S1132660C046BD4604B080BD0070044080B584B04F
S113267000AF78607B681B0C094A94466344FB6096
S1132680FB681A687B681B041B0C012199400B0032
S1132690D943FB680A401A60C046BD4604B080BDF9
S11326A00070044080B582B000AF0200FB1D1A70B8
S11326B0FB1D1B785BB2803301D1012306E0FB1DB7
S11326C01B785BB21800FFF79DFF00231800BD467E
S11326D002B080BD80B584B000AF78600023FB6099
S11326E006E00D4A7B68934206D0FB680133FB6029
S11326F0FB68002BF5D000E0C046FB68002B05D03A
S1132700064B074A0748892102F0A6FDFB6818001A
S1132710BD4604B080BDC04600A00640206A00004B
S1132720D06A0000446A000080B584B000AF7860CD
S11327307B68002B05D1144B144A1548902102F0F4
S11327408BFD7B685B8C9AB27B681B8C9BB29A4234
S11327500CD97B681B8C9BB21A007B68DB69D3188D
S11327607A68528C92B29B1AFB6008E07B681B8CDF
S11327709BB21A007B685B8C9BB2D31AFB60FB682C
S11327801800BD4604B080BD586A0000E46A000029
S1132790446A000080B584B000AF78607B68002B89
S11327A005D1104B104A1148A22102F055FD7B6857
S11327B01800FFF7B9FF02007B68DB69013B9A420E
S11327C004D10F23FB1801221A7003E00F23FB1816
S11327D000221A700F23FB181B781800BD4604B0A2
S11327E080BDC046586A0000086B0000446A0000BF
S11327F080B586B000AFF860B9607A60BB68002B22
S113280005D10E4B0E4A0F48B42102F025FD0023DA
S11328107B6109E0BA687B69D318FA68D279D2B2CD
S11328201A707B6901337B617A697B689A42F1D3C0
S1132830C046C046BD4606B080BDC046606A0000C2
S11328402C6B0000446A000080B586B000AFF860CD
S1132850B9607A60BB68002B05D10D4B0D4A0E4858
S1132860C22102F0F9FC00237B6108E0BA687B69AD
S1132870D3181A78FB68DA717B6901337B617A6952
S11328807B689A42F2D3C046C046BD4606B080BDBE
S1132890606A0000446B0000446A0000B0B58CB06C
S11328A000AFF860B9607A60BB68002B05D1954B26
S11328B0954A9648D02102F0CFFCBB681B68002BD8
S11328C005D1934B904A9148D12102F0C5FC2C23A9
S11328D0FB1800221A8000237B62BB681B68BB6163
S11328E004233B625AE0BB681B683A6A53431900ED
S11328F0786803F04BFD03001A002A217B181A8024
S11329000A00BB181B88002B02D1BB1801221A80B5
S11329102A257B191B883A6A53431900786803F007
S113292035FD03007B61BB681B687A69D31AFB61C0
S1132930BB681C687B191B8801331A003B6A53432C
S11329401900786803F022FD0300E31AFA699A4239
S113295013D9BB681C687B191B8801331A003B6AB6
S113296053431900786803F011FD0300E31AFB6177
S11329707B191A887B1901321A80FA69BB699A4259
S113298009D8FB69BB613B6A7B622C23FB182A22B2
S1132990BA1812881A803B6A01333B623B6A202BC7
S11329A0A1D9BB681B686421180003F0EFFC030085
S11329B01A0013005B009B18BA699A4201D9554B5F
S11329C09CE0FB681800FFF785FE534B1800FFF7E7
S11329D033FEFB68DB78DBB20C229343DAB2FB688C
S11329E0DA707B6A032B0AD97B6A072B07D8FB684A
S11329F0DB7ADBB202221343DAB2FB68DA72FB68D9
S1132A009B7ADBB21F229343DAB27B6ADBB2013BCF
S1132A10DBB21343DAB2FB689A72FB689B7ADBB2CF
S1132A201F229343DAB22C217B181B881B0A9BB20A
S1132A30DBB21343DAB2FB681A707B181B88DAB274
S1132A40FB685A70FB689B78DAB22F203B18172179
S1132A508A431A70BB689B799B00DBB20422134043
S1132A60D9B23B183A1812780A431A70BB681B791A
S1132A70002B09D0BB681A793B181B781343DAB2D0
S1132A803B1810210A431A70FB682F203A18127859
S1132A909A70FB681B78DBB220229343DAB2FB689E
S1132AA01A70FB681B78DAB2BB685B795B01DBB236
S1132AB020210B40DBB21343DAB2FB681A703B18D7
S1132AC0FA68D2781A70BB68DB79002B05D03B1802
S1132AD03A18127808210A431A70BB681B7A002B33
S1132AE006D02F22BB18BA18127804210A431A7090
S1132AF0FB682F22BA181278DA7000231800BD463A
S1132B000CB0B0BD686A00005C6B0000446A000051
S1132B10706A0000B50400000A00341080B582B069
S1132B2000AF7860C0467B681B79DBB21A00402393
S1132B301340F8D07B681800FFF7CCFD034B180056
S1132B40FFF794FDC046BD4602B080BD0A003410B4
S1132B5080B582B000AF78607B68002B06D10F4B44
S1132B600F4AA82149000F4802F076FB7B68E12256
S1132B7052021A607B6800221A717B6800225A7123
S1132B807B6800229A717B680022DA717B680022DC
S1132B901A72C046BD4602B080BDC046686A0000D5
S1132BA0686B0000446A0000B0B58CB000AFF860F8
S1132BB0B9607A60BB68002B06D1654B654AAE21CB
S1132BC04900654802F048FB0023BB6200237B6296
S1132BD0BB68BB612323FB1804221A705FE0232324
S1132BE0FB181B78BA6853431900786803F0CEFBCE
S1132BF003001A002E217B181A800A00BB181B88B8
S1132C00002B02D1BB1801221A8023257B191B78C3
S1132C102E243A19128853431900786803F0B6FB3E
S1132C2003003B613A69BB68D31AFB617B191B78CB
S1132C303A191288013253431900786803F0A6FB4D
S1132C4003001A00BB689B1AFA699A4213D97B19CC
S1132C501B783A191288013253431900786803F03B
S1132C6095FB03001A00BB689B1AFB613B191A8889
S1132C703B1901321A80FA69BB699A4209D8FB6987
S1132C80BB612323FB181B78BB622E23FB181B8814
S1132C907B6223217B181A787B1801321A70232354
S1132CA0FB181B78202B9AD9BB686421180003F009
S1132CB06DFB03001A0013005B009B18BA699A426B
S1132CC040D21723FB18FA68D2781A70FB68DB78B5
S1132CD0DBB20C229343DAB2FB68DA70BB6A032BD3
S1132CE00AD9BB6A072B07D8FB68DB7ADBB202225E
S1132CF01343DAB2FB68DA72FB689B7ADBB21F22F9
S1132D009343DAB2BB6ADBB2013BDBB21343DAB200
S1132D10FB689A72FB689B7ADBB21F229343DAB298
S1132D207B6A1B0ADBB21343DAB2FB681A707B6A54
S1132D30DAB2FB685A70FB681722BA181278DA7094
S1132D40002300E0054B1800BD460CB0B0BDC046E2
S1132D50886A0000806B0000446A0000B50400002B
S1132D6080B582B000AF786039603B68114A134087
S1132D703B607B681B78DAB23B68DBB21343DAB2A0
S1132D807B681A707B68DB78DAB23B681B0ADBB2BB
S1132D901343DAB27B68DA707B689B79DAB23B68FA
S1132DA01B0CDBB21343DAB27B689A71C046BD4692
S1132DB002B080BDC0F00F0080B582B000AF786073
S1132DC039603B68144A13403B607B681B78DBB274
S1132DD03A68D2B2D243D2B21340DAB27B681A70E4
S1132DE07B68DB78DBB23A68120AD2B2D243D2B241
S1132DF01340DAB27B68DA707B689B79DBB23A689D
S1132E00120CD2B2D243D2B21340DAB27B689A71B6
S1132E10C046BD4602B080BDC0F00F0080B584B08E
S1132E2000AF78607B681B78DBB21A007B68DB78C4
S1132E30DBB21B021A437B689B79DBB21B0413438E
S1132E40FB60FB68024A13401800BD4604B080BD15
S1132E50C0F00F0080B584B000AF78607B681B7948
S1132E60DBB21A007B685B79DBB21B021343FB60A5
S1132E70FB681800BD4604B080BD80B584B000AFC7
S1132E80786039600B217B1800221A707B181B783C
S1132E90DBB20133DAB27B181A703A6880231B0262
S1132EA0134006D07B6880225A713B68154A134050
S1132EB03B603A688023DB01134006D07B684022E4
S1132EC05A713B68104A13403B603B681F22134011
S1132ED00AD03B68DBB21F221340DAB27B681A7156
S1132EE03B681F2293433B603B68002B02D0074B97
S1132EF0FB6001E00023FB60FB681800BD4604B0E2
S1132F0080BDC046FF7FFFFFFFBFFFFFB40400008A
S1132F1080B584B000AFF860B9607A60BB68002BFC
S1132F2012D10E4B0E4A0F490F4802F095F9C046D4
S1132F30FB681B79DBB25BB2002BF9DABB685A1C65
S1132F40BA601A78FB68DA717B685A1E7A60002BC3
S1132F50EDD1C046C046BD4604B080BD606A0000E5
S1132F60946B000005020000446A000080B586B03E
S1132F7000AFF860B9607A60BB68002B47D1294B79
S1132F80294A85218900294802F066F9FB6818005E
S1132F90FFF760FF03007B617B690822134007D0C1
S1132FA0FB6808211800FFF768FF9723DB0034E073
S1132FB07B690422134006D0FB6804211800FFF744
S1132FC05CFF1B4B29E07B690222134006D0FB689F
S1132FD002211800FFF751FF164B1EE07B69012206
S1132FE0134006D0FB6801211800FFF746FF124B7F
S1132FF013E0FB681B79DBB21A0020231340C5D011
S1133000BB685A1CBA60FA68D279D2B21A707B686B
S11330105A1E7A60002BECD100231800BD4606B07E
S113302080BDC046606A0000A86B0000446A0000CE
S1133030B9040000BA040000BB04000080B586B0E7
S113304000AFF860B9607A603B60BB68002B05D1C3
S1133050174B184A1849194802F0FEF8BB68302289
S11330600021180003F05AFBBB682D220221995459
S1133070BB682C2200219954BB687A685A62BB68E9
S11330803A689A62FB681800FFF724FB03007B612F
S11330900B4B7A699200B968D1500A4B0A4A1A60FC
S11330A00C231800FFF7FEFAC046BD4606B080BDEB
S11330B0586A0000BC6B000041020000446A000032
S11330C054E0FF1F58E0FF1F5936000080B584B05C
S11330D000AFF860B9607A603B60BB68002B05D133
S11330E01A4B1B4A1B491C4802F0B6F87B68002B9C
S11330F005D11A4B164A1A49174802F0ADF8BB68B5
S11331007A689A61BB683A68DA61BB6800221A84FB
S1133110BB6800225A84A2231A03FB68110018001A
S1133120FFF71EFEFB689B78DBB202221340DBB282
S1133130002B06D080235A02FB6811001800FFF709
S11331400FFEC046BD4604B080BDC046586A0000AC
S1133150D86B00005E020000446A0000986A000018
S11331605F02000080B582B000AF786039603B68D0
S1133170002B05D1184B194A19491A4802F06CF86A
S11331803B682D229B5CDBB2022B15D1A2231A03D0
S11331907B6811001800FFF70FFE7B689B78DBB299
S11331A002221340DBB2002B06D080235A027B6834
S11331B011001800FFF700FE3B6800229A613B688B
S11331C00022DA613B6800221A843B6800225A8498
S11331D0C046BD4602B080BD586A0000F86B0000CE
S11331E073020000446A000080B586B000AFF86046
S11331F0B9607A60BB68002B05D1264B264A274963
S1133200274802F029F87B68002B05D1254B224A78
S11332102549234802F020F87B685B68002B05D120
S1133220224B1D4A22491E4802F016F87B681B688F
S1133230002B06D11F4B184AA3218900184802F01D
S11332400BF8BB682C229B5CDBB2012B03D19623C9
S1133250DB007B6118E07B681A68BB681A607B68D6
S11332605A68BB685A607B685A68BB689A60BB68D6
S11332702C220121995480231A02FB6811001800A2
S1133280FFF76EFD00237B617B691800BD4606B025
S113329080BDC046586A0000186C00008902000016
S11332A0446A0000A46A00008A020000AC6A0000BC
S11332B08B020000BC6A000080B582B000AF786069
S11332C039603B68002B05D10B4B0C4A0C490D4867
S11332D001F0C2FFC0231A027B6811001800FFF737
S11332E06BFD3B6800225A603B682C2200219954F4
S11332F0C046BD4602B080BD586A0000386C00006C
S1133300A7020000446A000080B584B000AFF860F2
S1133310B9607A60BB68002B05D1114B114A124980
S1133320124801F099FF7B68002B05D1104B0D4A20
S113333010490E4801F090FFBB682C229B5CDBB265
S1133340002B01D1062307E0BB689A68BB685B6861
S1133350D21A7B681A6000231800BD4604B080BDF1
S1133360586A0000506C0000B1020000446A00007A
S1133370C86A0000B202000090B58BB000AFF860DC
S1133380B9607A603B60BB68002B05D16D4B6E4A17
S11333906E496F4801F060FF7B68002B06D16D4BCE
S11333A0694AB12189006A4801F056FF7B685B686D
S11333B0002B05D1684B644A6849654801F04CFF0D
S11333C07B681B68002B05D1654B5F4A65496048E3
S11333D001F042FF00237B61BB682D229B5CDBB2C2
S11333E0032B02D1604B3B62A6E07B685B68FB6108
S11333F00023BB61BB689B69002B00D16EE0802376
S11334009A01FB6811001800FFF7D6FCBB6818008E
S1133410FFF78AF903007B617B69002B34D0FA69DA
S11334207B69934200D913007B61FA697B69D31AE3
S1133430FB6100237B6223E0BB689B69BA68528C02
S113344092B29A187B681968BB69581CB861CB188A
S113345012781A70BB685B8C9BB25A1CBB68DB6920
S11334609A4203D1BB6800225A8406E0BB685B8C95
S11334709BB201339AB2BB685A847B6A01337B6284
S11334807A6A7B699A42D7D3FB69002B0FD07B6899
S11334901A68BB69D218BB68DA60BB68FA691A613A
S11334A0BB68FA695A61BB682D22032199548023B1
S11334B09A01FB6811001800FFF752FCFB69002B0E
S11334C032D1BB685B6A002B2ED0BB685C6ABB68D8
S11334D09B6A264AB968F868A04725E07B681A68A1
S11334E0BB69D218BB68DA60BB68FA691A61BB6849
S11334F0FA695A61BB682D2203219954A3231A0344
S1133500FB6811001800FFF72BFCFB689B78DBB20B
S113351002221340DBB2002B06D080235A02FB6840
S113352011001800FFF71CFC3B68002B02D03B681D
S1133530BA691A6000233B623B6A1800BD460BB0AF
S113354090BDC046586A00006C6C0000C3020000C5
S1133550446A0000A46A0000AC6A0000C5020000CE
S1133560BC6A0000C6020000B1040000B3040000FD
S113357080B582B000AF786039603B68002B05D11C
S1133580154B164A1649174801F066FE3B689B69BD
S1133590002B15D1A3231A037B6811001800FFF731
S11335A00BFC7B689B78DBB202221340DBB2002B5E
S11335B006D080235A027B6811001800FFF7FCFB39
S11335C03B6800221A613B682D2202219954C046AF
S11335D0BD4602B080BDC046586A0000906C000031
S11335E03A030000446A000080B584B000AFF8607C
S11335F0B9607A60BB68002B05D1124B124A13499B
S1133600134801F029FE7B68002B06D1114B0E4AAA
S1133610D42189000E4801F01FFEBB682D229B5C5B
S1133620DBB2022B01D1062307E0BB685A69BB68F1
S11336301B69D21A7B681A6000231800BD4604B0C7
S113364080BDC046586A0000AC6C00004F03000007
S1133650446A0000C86A000090B585B000AF786085
S113366039603B68002B05D1C74BC84AC849C948D3
S113367001F0F2FD7B681B79DBB201221340DBB25F
S1133680002B14D03B682D22052199547B6801211D
S11336901800FFF7F2FB3B685B6A002B07D03B681E
S11336A05C6A3B689B6ABC4A39687868A0477B6857
S11336B01B79DBB202221340DBB2002B14D03B682F
S11336C02D22042199547B6802211800FFF7D5FBB1
S11336D03B685B6A002B07D03B685C6A3B689B6A6B
S11336E0AE4A39687868A0477B681B79DBB2082248
S11336F01340DBB2002B1CD001E07B68DB797B68D4
S11337001B79DBB220221340DBB2002BF5D17B689E
S113371008211800FFF7B1FB3B685B6A002B08D057
S11337203B685C6A3B689B6A9722D2003968786878
S1133730A0477B681B79DBB210221340DBB2002B5D
S113374023D07B68DB78DBB210221340DBB2002B82
S11337501BD07B6810211800FFF78FFB3B681B69A7
S1133760002B06D180235A017B6811001800FFF753
S113377023FB3B685B6A002B07D03B685C6A3B68B1
S11337809B6A874A39687868A0477B681B79DBB2F3
S113379020221340DBB2002B00D1BDE07B68DB7834
S11337A0DBB220221340DBB2002B00D1B4E00F23A4
S11337B0FB1801221A7036E00E243B1901221A70FC
S11337C03B68D9683B191A787B681800FFF710F832
S11337D03B68DA6820003B181B78D2183B68DA6033
S11337E03B681A693B181B78D21A3B681A610F228E
S11337F0BB18B9183A18097812788A1A1A703B68F3
S11338001B69002B0FD13B682D22022199543B6880
S11338105B6A002B07D03B685C6A3B689B6A614A21
S113382039687868A0470F23FB181B78002B03D056
S11338303B681B69002BBFD13B689B69002B51D0AF
S113384047E03B681800FEF7A5FF031E0BD03B685A
S11338505B6A002B07D03B685C6A3B689B6A524AF0
S113386039687868A0473B681800FEF793FF031E89
S113387012D03B685B8C9BB25A1C3B68DB699A4252
S113388003D13B6800225A8406E03B685B8C9BB200
S113389001339AB23B685A843B689B693A68128C3C
S11338A092B29B187A68D279D2B21A703B681B8C98
S11338B09BB25A1C3B68DB699A4203D13B680022E5
S11338C01A8406E03B681B8C9BB201339AB23B68B6
S11338D01A840F22BB181B78BA18591E1170002BBA
S11338E0AFD119E03B681B69002B15D1A2231A0341
S11338F07B6811001800FFF75FFA7B689B78DBB2E6
S113390002221340DBB2002B06D080235A027B68CC
S113391011001800FFF750FA3B682D229B5CDBB2C4
S1133920042B05D03B682D229B5CDBB2052B19D1FF
S11339303B689B69002B15D1A2231A037B681100F5
S11339401800FFF739FA7B689B78DBB20222134038
S1133950DBB2002B06D080235A027B6811001800CA
S1133960FFF72AFA7B681B79DBB25BB2002B65DABE
S11339707B68DB78DBB25BB2002B5FDA0F23FB18CA
S113398001221A7051E0C046586A0000CC6C000055
S11339905E030000446A0000BB040000BA04000097
S11339A0BC040000B3040000B70400000E243B195B
S11339B001221A703B6819683B191A787B68180051
S11339C0FEF742FF3B681A6820003B181B78D218A8
S11339D03B681A603B685A683B181B78D21A3B68EC
S11339E05A600F22BB18B9183A18097812788A1A43
S11339F01A703B685B68002B17D13B682C220021AE
S1133A0099547B68DB78DBB27F221340DAB27B689F
S1133A10DA703B685B6A002B07D03B685C6A3B68E2
S1133A209B6A084A39687868A0470F23FB181B78FB
S1133A30002B03D03B685B68002BB7D1C046BD4662
S1133A4005B090BDB204000080B582B000AF7860CC
S1133A503960C046BD4602B080BD80B500AF054B9D
S1133A601A68054B1B68054819009047C046BD46B7
S1133A7080BDC04658E0FF1F54E0FF1F00A0064071
S1133A8080B582B000AFEFF310833B603B687B608E
S1133A9072B6C0467B681800BD4602B080BD80B5D2
S1133AA084B000AF78607B68FB60FB6883F31088A8
S1133AB0C046C046BD4604B080BD80B582B000AFEC
S1133AC03B1D094A12881A80FFF7DAFF0200074BF0
S1133AD01A60BFF36F8FC0463B1D1800FEF7FDFC54
S1133AE0C046BD4602B080BDE46C00005CE0FF1F30
S1133AF080B582B000AF3B1D00221A703B1D00222E
S1133B005A703B1D1800FEF7E8FC064B1B681800B2
S1133B10FFF7C5FFBFF36F8FC046C046BD4602B076
S1133B2080BDC0465CE0FF1F80B500AFFFF7A8FF73
S1133B300200044B1A60BFF36F8FC046C046BD46F7
S1133B4080BDC0465CE0FF1F80B500AF054B1B681D
S1133B501800FFF7A4FFBFF36F8FC046C046BD46F1
S1133B6080BDC0465CE0FF1F80B584B000AF7860C4
S1133B700F203B187A6852781A703B183A1812785A
S1133B8060218A431A703B183A1812781A707B68BD
S1133B903A1812785A7000231800BD4604B080BD4C
S1133BA080B582B000AF7860084B1A69074B0421D6
S1133BB08A431A61BFF34F8FC04630BFBFF36F8F84
S1133BC0C04600231800BD4602B080BD00ED00E0F1
S1133BD080B584B000AF78600A00FB1C1A700F2017
S1133BE03B187A6892781A703B183A1812783F2179
S1133BF00A401A70FB1C1B789B01D9B23B183A1877
S1133C0012780A431A707B683A1812789A703B1833
S1133C107A6852781A703B183A18127807218A4346
S1133C201A703B183A1812781A707B683A1812788E
S1133C305A700E4B1A690D4B04210A431A617B68B2
S1133C405B78BFF34F8FC04630BFBFF36F8FC04662
S1133C507B685B78DBB21A000823134001D0044B65
S1133C6000E000231800BD4604B080BD00ED00E074
S1133C703C0F000080B584B000AF78600F203B1883
S1133C807A6852781A703B183A18127860218A437D
S1133C901A703B183A18127840210A431A707B684C
S1133CA03A1812785A7000231800BD4604B080BD3B
S1133CB080B582B000AF7860084B1A69074B0421C5
S1133CC08A431A61BFF34F8FC04630BFBFF36F8F73
S1133CD0C04600231800BD4602B080BD00ED00E0E0
S1133CE080B584B000AF78600F203B187A685278B2
S1133CF01A703B183A18127807218A431A703B1835
S1133D003A18127802210A431A707B683A1812781A
S1133D105A700E4B1A690D4B04210A431A617B68D1
S1133D205B78BFF34F8FC04630BFBFF36F8FC04681
S1133D307B685B78DBB21A000823134001D0044B84
S1133D4000E000231800BD4604B080BD00ED00E093
S1133D503C0F000080B584B000AF78600F203B18A2
S1133D607A6852781A703B183A18127807218A43F5
S1133D701A703B183A18127803210A431A707B68A8
S1133D803A1812785A700E4B1A690D4B04210A43E3
S1133D901A617B685B78BFF34F8FC04630BFBFF3B7
S1133DA06F8FC0467B685B78DBB21A000823134030
S1133DB001D0044B00E000231800BD4604B080BDD0
S1133DC000ED00E03C0F000080B584B000AF7860E7
S1133DD039603B681B78002B14D13B685B78002B5F
S1133DE008D07B689B78DBB220229343DAB27B68ED
S1133DF09A7007E07B689B78DBB220221343DAB227
S1133E007B689A700F203B187A6852781A703B18B6
S1133E103A18127807218A431A703B183A18127814
S1133E2004210A431A707B683A1812785A703B18B6
S1133E307A6892781A703B183A18127807218A43E4
S1133E401A703B6819783B183A1812780A431A70AA
S1133E507B683A1812789A700E4B1A690D4B04213C
S1133E600A431A617B685B78BFF34F8FC04630BF4B
S1133E70BFF36F8FC0467B685B78DBB21A00082300
S1133E80134001D0044B00E000231800BD4604B0E9
S1133E9080BDC04600ED00E03C0F000080B582B05C
S1133EA000AF0200FB1D1A70FB1D1B787F2B09D885
S1133EB0FB1D1B781A001F231A40044B012191405B
S1133EC00A001A60C046BD4602B080BD00E100E0B1
S1133ED080B584B000AF78607B681B0C084A9446B8
S1133EE06344FB60FB6819687B681B041B0C01229C
S1133EF09A40FB680A431A60C046BD4604B080BDC0
S1133F000070044080B584B000AF78607B681B0CFF
S1133F10094A94466344FB60FB681A687B681B0487
S1133F201B0C012199400B00D943FB680A401A601D
S1133F30C046BD4604B080BD0070044080B582B068
S1133F4000AF0200FB1D1A70FB1D1B785BB28033AF
S1133F5001D1012306E0FB1D1B785BB21800FFF7BB
S1133F609DFF00231800BD4602B080BD80B584B01B
S1133F7000AF78600323BB600023FB6009E00F4BB4
S1133F80FA689200D3587A689A4207D0FB680133E2
S1133F90FB60FA68BB689A42F1D300E0C046FA6855
S1133FA0BB689A4205D3064B064A0748A12101F093
S1133FB053F9FB681800BD4604B080BDE86C0000EE
S1133FC0046D0000AC6D0000206D000080B584B06D
S1133FD000AF78607B68002B05D1144B144A154858
S1133FE0A82101F039F97B685B8C9AB27B681B8C41
S1133FF09BB29A420CD97B681B8C9BB21A007B68DB
S1134000DB69D3187A68528C92B29B1AFB6008E081
S11340107B681B8C9BB21A007B685B8C9BB2D31AA7
S1134020FB60FB681800BD4604B080BD346D000021
S1134030C06D0000206D000080B584B000AF7860D2
S11340407B68002B05D1104B104A1148BA2101F0AE
S113405003F97B681800FFF7B9FF02007B68DB698E
S1134060013B9A4204D10F23FB1801221A7003E08A
S11340700F23FB1800221A700F23FB181B7818005B
S1134080BD4604B080BDC046346D0000E46D000040
S1134090206D0000B0B586B000AFF860B9607A60FA
S11340A0BB68002B05D1774B774A7848CC2101F0C7
S11340B0D3F8BB681B68002B05D1754B724A734853
S11340C0CD2101F0C9F816243B1900221A801523CA
S11340D0FB1800221A7000233B61BB681B681B019C
S11340E01900786802F052F903001A003B191A808B
S11340F03B191B88002B02D13B1901221A8016257B
S11341007B191B881B011900786802F03FF9030032
S11341101A00BB681B68D31A3B61BB681C687B1917
S11341201B8801331B011900786802F02FF9030082
S1134130E31A3A699A4211D9BB681C687B191B8837
S113414001331B011900786802F020F90300E31A17
S11341503B617B191A887B1901321A80BB681B6882
S11341606421180002F012F903001A0013005B0026
S11341709B183A699A4201D9464B7EE0FB681800C5
S1134180FFF7F4FE0200444B9200D3581800FFF7E7
S11341909FFEFB68DB78DBB20C229343DAB2FB6848
S11341A0DA70FB681B78DBB21F229343DAB2162164
S11341B07B181B881B0A9BB2DBB21343DAB2FB6881
S11341C01A707B181B88DAB2FB685A70FB689B78FC
S11341D0DAB215203B1817218A431A70BB689B7901
S11341E09B00DBB204221340D9B23B183A18127870
S11341F00A431A70BB681B79002B09D0BB681A7973
S11342003B181B781343DAB23B1810210A431A7087
S1134210FB6815203A1812789A70FB681B78DBB299
S113422020229343DAB2BB685B795B01DBB22021C5
S11342300B40DBB21343DAB2FB681A703B18FA681E
S1134240D2781A70BB68DB79002B05D03B183A187A
S1134250127808210A431A70BB681B7A002B06D017
S11342601522BB18BA18127804210A431A70FB6885
S11342701522BA181278DA7000231800BD4606B069
S1134280B0BDC0463C6D0000046E0000206D00000F
S1134290446D0000F5030000F86C000080B582B0A6
S11342A000AF7860C0467B681B79DBB21A004023FC
S11342B01340F8D07B680022DA707B681800FFF79F
S11342C055FE0200044B9200D3581800FFF71AFE63
S11342D0C046BD4602B080BDF86C000080B582B017
S11342E000AF78607B68002B06D10F4B0F4A6C211E
S11342F0FF310F4800F0B0FF7B68E12252021A60E0
S11343007B6800221A717B6800225A717B68002244
S11343109A717B680022DA717B6800221A72C046A7
S1134320BD4602B080BDC0463C6D0000106E00006A
S1134330206D000090B589B000AFF860B9607A6074
S1134340BB68002B06D1434B434A8221FF314348CB
S113435000F082FF1E243B1900221A800023BB6157
S1134360BB681B011900786802F010F803001A00FA
S11343703B191A803B191B88002B02D13B190122DF
S11343801A801E243B191B881B011900786801F050
S1134390FDFF03001A00BB68D31ABB613B191B88DD
S11343A001331B011900786801F0F0FF03001A00C3
S11343B0BB689B1ABA699A4211D93B191B8801330D
S11343C01B011900786801F0E1FF03001A00BB68C3
S11343D09B1ABB613B191A883B1901321A80BB68CE
S11343E06421180001F0D2FF03001A0013005B00DF
S11343F09B18BA699A4227D217217B18FA68D27897
S11344001A70FB68DB78DBB20C229343DAB2FB68E8
S1134410DA70FB681B78DBB21F229343DAB21E20EA
S11344203B181B881B0A9BB2DBB21343DAB2FB684E
S11344301A703B181B88DAB2FB685A70FB687A184A
S11344401278DA70002300E0054B1800BD4609B06D
S113445090BDC0465C6D0000286E0000206D000019
S1134460F503000080B582B000AF786039603B6826
S1134470114A13403B607B681B78DAB23B68DBB2BD
S11344801343DAB27B681A707B68DB78DAB23B6874
S11344901B0ADBB21343DAB27B68DA707B689B7960
S11344A0DAB23B681B0CDBB21343DAB27B689A7155
S11344B0C046BD4602B080BDC0F00F0080B582B0DA
S11344C000AF786039603B68144A13403B607B68F6
S11344D01B78DBB23A68D2B2D243D2B21340DAB21A
S11344E07B681A707B68DB78DBB23A68120AD2B256
S11344F0D243D2B21340DAB27B68DA707B689B791C
S1134500DBB23A68120CD2B2D243D2B21340DAB25E
S11345107B689A71C046BD4602B080BDC0F00F00F2
S113452080B584B000AF78607B681B78DBB21A007A
S11345307B68DB78DBB21B021A437B689B79DBB2B6
S11345401B041343FB60FB68024A13401800BD467A
S113455004B080BDC0F00F0080B584B000AF7860B7
S11345607B681B79DBB21A007B685B79DBB21B02C8
S11345701343FB60FB681800BD4604B080BD80B5E2
S113458084B000AF786039600B203B187A685279A8
S11345901A703B183A1812783F210A401A703B6887
S11345A01B0ADAB23B181B781343DAB27B685A71E0
S11345B03B681722134003D07B681B797B68DB7947
S11345C03B680822134003D07B681B797B68DB7946
S11345D07B681800FFF7C0FF02003B68134002D05D
S11345E0044BFB6001E00023FB60FB681800BD4640
S11345F004B080BDEE03000080B584B000AFF86065
S1134600B9607A600CE0C046FB681B79DBB25BB230
S1134610002BF9DABB685A1CBA601A78FB68DA71A5
S11346207B685A1E7A60002BEDD1C046C046BD4659
S113463004B080BD80B586B000AFF860B9607A6020
S1134640BB68002B05D10D4B0D4A0E490E4800F0F6
S113465003FE00237B6108E0BA687B69D3181A78EB
S1134660FB68DA717B6901337B617A697B689A4202
S1134670F2D3C046C046BD4606B080BD6C6D000096
S11346803C6E000041020000206D000080B586B041
S113469000AFF860B9607A60BB68002B32D11E4B62
S11346A01E4A1F491F4800F0D7FDFB681800FFF79A
S11346B053FF03007B617B690822134001D01A4B2E
S11346C026E07B690422134001D0184B20E07B696B
S11346D00222134001D0164B1AE07B6901221340D9
S11346E002D0FD239B0013E0FB681B79DBB21A00A8
S11346F020231340D9D0BB685A1CBA60FA68D27917
S1134700D2B21A707B685A1E7A60002BECD1002357
S11347101800BD4606B080BD6C6D0000546E0000EC
S11347204F020000206D0000F1030000F2030000BE
S1134730F303000080B586B000AFF860B9607A601A
S1134740BB68002B05D10E4B0E4A0F490F4800F0F1
S113475083FD00237B6109E0BA687B69D318FA689A
S1134760D279D2B21A707B6901337B617A697B6832
S11347709A42F1D3C046C046BD4606B080BDC0468D
S11347806C6D0000686E000079020000206D00006E
S113479080B586B000AFF860B9607A603B60BB68F2
S11347A0002B05D1194B1A4A1A491B4800F054FD35
S11347B0BB6830220021180001F0B0FFBB682D2235
S11347C002219954BB682C2200219954BB687A6851
S11347D05A62BB683A689A62FB681800FFF7C6FB26
S11347E003007B610D4B7A699200B968D1500C4B80
S11347F00C4A1A600C4A7B69D3181B785BB2180008
S1134800FFF79CFBC046BD4606B080BD346D00007A
S1134810806E00008A020000206D000060E0FF1F2F
S11348206CE0FF1FC54D0000F46C000080B584B03F
S113483000AFF860B9607A603B60BB68002B05D1BB
S11348401A4B1B4A1B491C4800F006FD7B68002BD1
S113485005D11A4B164A1A49174800F0FDFCBB68EB
S11348607A689A61BB683A68DA61BB6800221A8484
S1134870BB6800225A84A2231A03FB6811001800A3
S1134880FFF7F0FDFB689B78DBB202221340DBB23A
S1134890002B06D080235A02FB6811001800FFF792
S11348A0E1FDC046BD4604B080BDC046346D000085
S11348B09C6E0000A6020000206D0000746D0000D4
S11348C0A702000080B582B000AF786039603B6811
S11348D0002B05D1184B194A19491A4800F0BCFCA1
S11348E03B682D229B5CDBB2022B15D1A2231A0359
S11348F07B6811001800FFF7E1FD7B689B78DBB251
S113490002221340DBB2002B06D080235A027B68BC
S113491011001800FFF7D2FD3B6800229A613B6842
S11349200022DA613B6800221A843B6800225A8420
S1134930C046BD4602B080BD346D0000BC6E0000B0
S1134940BB020000206D000080B586B000AFF860A7
S1134950B9607A60BB68002B06D1264B264AB42185
S11349608900264800F078FC7B68002B05D1244B95
S1134970214A2449214800F06FFC7B685B68002BC6
S113498005D1214B1C4A21491C4800F065FC7B6879
S11349901B68002B05D11E4B174A1E49174800F00F
S11349A05BFCBB682C229B5CDBB2012B03D1FA239A
S11349B09B007B6118E07B681A68BB681A607B689F
S11349C05A68BB685A607B685A68BB689A60BB685F
S11349D02C220121995480231A02FB68110018002B
S11349E0FFF740FD00237B617B691800BD4606B0DC
S11349F080BDC046346D0000D86E0000206D0000FC
S1134A00806D0000D1020000886D0000D202000019
S1134A10986D0000D302000080B582B000AF7860CA
S1134A2039603B68002B05D10B4B0C4A0C490D48EF
S1134A3000F012FCC0231A027B6811001800FFF773
S1134A403DFD3B6800225A603B682C2200219954AA
S1134A50C046BD4602B080BD346D0000F86E000053
S1134A60EE020000206D000080B584B000AFF86055
S1134A70B9607A60BB68002B06D1124B124ABE2182
S1134A808900124800F0E8FB7B68002B05D1104B2D
S1134A900D4A10490D4800F0DFFBBB682C229B5CDB
S1134AA0DBB2002B01D1062307E0BB689A68BB6820
S1134AB05B68D21A7B681A6000231800BD4604B0F4
S1134AC080BDC046346D0000106F0000206D0000F2
S1134AD0A46D0000F902000090B58BB000AFF8603F
S1134AE0B9607A603B60BB68002B05D16D4B6E4AA0
S1134AF06E496F4800F0B0FB7B68002B05D16D4B0D
S1134B00694A6D496A4800F0A7FB7B681B68002B63
S1134B1006D16A4B644AC3218900654800F09CFBB6
S1134B207B685B68002B05D1654B5F4A654960482B
S1134B3000F092FB00237B61BB682D229B5CDBB2FF
S1134B40032B02D1604B3B62A6E07B685B68FB6190
S1134B500023BB61BB689B69002B00D16EE08023FE
S1134B609A01FB6811001800FFF7A8FCBB68180045
S1134B70FFF72CFA03007B617B69002B34D0FA69C0
S1134B807B69934200D913007B61FA697B69D31A6C
S1134B90FB6100237B6223E0BB689B69BA68528C8B
S1134BA092B29A187B681968BB69581CB861CB1813
S1134BB012781A70BB685B8C9BB25A1CBB68DB69A9
S1134BC09A4203D1BB6800225A8406E0BB685B8C1E
S1134BD09BB201339AB2BB685A847B6A01337B620D
S1134BE07A6A7B699A42D7D3FB69002B0FD07B6822
S1134BF01A68BB69D218BB68DA60BB68FA691A61C3
S1134C00BB68FA695A61BB682D2203219954802339
S1134C109A01FB6811001800FFF724FCFB69002BC4
S1134C2032D1BB685B6A002B2ED0BB685C6ABB6860
S1134C309B6A264AB968F868A04725E07B681A6829
S1134C40BB69D218BB68DA60BB68FA691A61BB68D1
S1134C50FA695A61BB682D2203219954A3231A03CC
S1134C60FB6811001800FFF7FDFBFB689B78DBB2C3
S1134C7002221340DBB2002B06D080235A02FB68C9
S1134C8011001800FFF7EEFB3B68002B02D03B68D5
S1134C90BA691A6000233B623B6A1800BD460BB038
S1134CA090BDC046346D00002C6F00000A03000064
S1134CB0206D0000806D00000B030000986D000063
S1134CC0886D00000D030000E9030000EB03000001
S1134CD080B582B000AF786039603B68002B05D1A5
S1134CE0154B164A1649174800F0B6FA3B689B69FB
S1134CF0002B15D1A3231A037B6811001800FFF7BA
S1134D00DDFB7B689B78DBB202221340DBB2002B15
S1134D1006D080235A027B6811001800FFF7CEFBEF
S1134D203B6800221A613B682D2202219954C04637
S1134D30BD4602B080BDC046346D00004C6F00001B
S1134D4081030000206D000080B584B000AFF860DE
S1134D50B9607A60BB68002B05D1144B144A15491D
S1134D60154800F079FA7B68002B05D1134B104AE3
S1134D701349114800F070FABB682D229B5CDBB22A
S1134D80022B01D106230CE07B68002B01D1042304
S1134D9007E0BB685A69BB681B69D21A7B681A6052
S1134DA000231800BD4604B080BDC046346D000029
S1134DB0686F000096030000206D0000A46D0000E1
S1134DC09703000090B585B000AF786039603B6808
S1134DD0002B05D1A94BAA4AAA49AB4800F03CFADA
S1134DE07B681B79DBB202221340DBB2002B1CD0A0
S1134DF001E07B68DB797B681B79DBB21A00202336
S1134E001340F6D13B682D22042199543B680022BB
S1134E101A613B685B6A002B07D03B685C6A3B689D
S1134E209B6A9A4A39687868A0477B681B79DBB229
S1134E3001221340DBB2002B1DD001E07B68DB793B
S1134E407B681B79DBB21A0020231340F6D13B6840
S1134E502D22052199543B6800221A613B685B6A44
S1134E60002B08D03B685C6A3B689B6AFD22920079
S1134E7039687868A0477B681B79DBB20822134045
S1134E80DBB2002B15D001E07B68DB797B681B79F2
S1134E90DBB21A0020231340F6D13B685B6A002B77
S1134EA007D03B685C6A3B689B6A794A39687868D2
S1134EB0A0477B681B79DBB210221340DBB2002BC6
S1134EC02DD07B68DB78DBB210221340DBB2002BE1
S1134ED025D001E07B68DB797B681B79DBB210228B
S1134EE01340DBB2002BF5D13B681B69002B06D1C4
S1134EF080235A017B6811001800FFF7DFFA3B6832
S1134F005B6A002B0BD03B681B69002B07D03B6806
S1134F105C6A3B689B6A5F4A39687868A0477B682B
S1134F201B79DBB220221340DBB2002B00D1CFE08F
S1134F307B68DB78DBB220221340DBB2002B00D18C
S1134F40C6E00F23FB1801221A7036E00E243B1929
S1134F5001221A703B68D9683B191A787B681800DB
S1134F60FFF7E8FB3B68DA6820003B181B78D2188F
S1134F703B68DA603B681A693B181B78D21A3B68B5
S1134F801A610F22BB18B9183A18097812788A1ACC
S1134F901A703B681B69002B0FD13B682D2202213C
S1134FA099543B685B6A002B07D03B685C6A3B689A
S1134FB09B6A394A39687868A0470F23FB181B7825
S1134FC0002B03D03B681B69002BBFD13B689B6956
S1134FD0002B63D048E03B681800FFF72DF8031E50
S1134FE00CD03B685B6A002B08D03B685C6A3B686A
S1134FF09B6AFC22920039687868A0473B681800D5
S1135000FFF71AF8031E12D03B685B8C9BB25A1C44
S11350103B68DB699A4203D13B6800225A8406E06C
S11350203B685B8C9BB201339AB23B685A843B6801
S11350309B693A68128C92B29B187A68D279D2B280
S11350401A703B681B8C9BB25A1C3B68DB699A4202
S113505003D13B6800221A8406E03B681B8C9BB298
S113506001339AB23B681A840F22BB181B78BA1812
S1135070591E1170002BAED12AE0C046346D0000D9
S1135080886F0000AA030000206D0000F3030000F5
S1135090F1030000F6030000EB0300003B681B690A
S11350A0002B15D1A2231A037B6811001800FFF707
S11350B005FA7B689B78DBB202221340DBB2002B3B
S11350C006D080235A027B6811001800FFF7F6F916
S11350D03B682D229B5CDBB2042B05D03B682D2260
S11350E09B5CDBB2052B19D13B689B69002B15D166
S11350F0A3231A037B6811001800FFF7DFF97B680C
S11351009B78DBB202221340DBB2002B06D0802353
S11351105A027B6811001800FFF7D0F97B681B79ED
S1135120DBB25BB2002B52DA7B68DB78DBB25BB2BA
S1135130002B4CDA0F23FB1801221A703EE00E24D8
S11351403B1901221A703B6819683B191A787B686D
S11351501800FFF76FFA3B681A6820003B181B78A9
S1135160D2183B681A603B685A683B181B78D21AFD
S11351703B685A600F22BB18B9183A18097812789C
S11351808A1A1A703B685B68002B17D13B682C2283
S1135190002199547B68DB78DBB27F221340DAB2BA
S11351A07B68DA703B685B6A002B07D03B685C6AFB
S11351B03B689B6A084A39687868A0470F23FB1844
S11351C01B78002B03D03B685B68002BB7D1C0462B
S11351D0BD4605B090BDC046EA03000080B582B06C
S11351E000AF78603960C046BD4602B080BD80B56E
S11351F000AF054B1A68054B5B68054819009047DA
S1135200C046BD4680BDC0466CE0FF1F60E0FF1F86
S113521000B0064080B500AFFFF7E9FFC046BD46C9
S113522080BD80B500AF054B1A68054B9B680548E7
S113523019009047C046BD4680BDC0466CE0FF1FC4
S113524060E0FF1F00C0064080B500AFFFF7E9FF34
S1135250C046BD4680BDC04690B587B002AFF86079
S1135260B9607A603B60BC68FA68396803487B6857
S11352700093230000F03AF800BEFDE7A06F0000A1
S113528090B585B000AFF860B9603B60FB1D1A7043
S1135290FB1D1B78002B05D1094B0A4A0A486921DA
S11352A0FFF7DAFF3C68BA68FB1D1978F868230039
S11352B000F094FA03001800BD4605B090BDC04646
S11352C0E06F00002C7000000C70000080B500AF8F
S11352D000F0A1FA00231800BD4680BD80B500AFE0
S11352E000F0A0FA03001800BD4680BD0FB4F0B56D
S11352F0A5B000AF00238C243A191360002388253D
S11353007A1913603B1D00221A6004337C220021A9
S1135310180001F003FA9C2308269B1908229446DE
S1135320BC44634484217A181360114B3A1D7918E4
S11353300968982080190826B446BC446044006873
S113534000F01EFC03003A1913603B191A683B1D58
S11353501100180000F06EFA03007A1913607B192B
S11353601B681800BD4625B0F0BC08BC04B0184743
S1135370F553000080B582B000AF78603B1D012179
S1135380180000F057FA03001800BD4602B080BDB3
S11353900FB480B588B000AF3B0000221A6004331C
S11353A011220021180001F0B9F93B001421180062
S11353B000F085FA2C23FB18BB61BA69B96A3B007B
S11353C0180000F06FFD0300FB61FB691800BD4687
S11353D008B080BC08BC04B0184780B582B000AFE8
S11353E0FB1D180000F0C6FAFB1D1B781800BD4613
S11353F002B080BD80B586B000AFF860B9603B6094
S1135400FB1D1A7000237B6100237B611FE0BB68D6
S11354101B6801337F2B0AD9BB681B681A00FB6821
S11354201100180000F006FABB6800221A60BB687D
S11354301B681A00FB689B18FA1D12781A70BB6867
S11354401B685A1CBB681A607B6901337B617A69EB
S11354503B689A42DBDBC046C046BD4606B080BD11
S113546080B584B000AFF860B9607A60BB68002B87
S113547002D101235B420FE0FB68012B05D0FB68DE
S1135480022B02D001235B4206E07A68BB6811005C
S1135490180000F0CFF97B681800BD4604B080BD49
S11354A080B584B000AFF860B9607A60FB68002B07
S11354B002D001235B4206E07A68BB681100180041
S11354C000F0FDF903001800BD4604B080BDC046DD
S11354D080B582B000AF78600A00FB1C1A70FB1C18
S11354E01B78002B08D07B68DB78DBB208221343DF
S11354F0DAB27B68DA7007E07B68DB78DBB208221B
S11355009343DAB27B68DA70C046BD4602B080BD10
S113551080B582B000AF78600A00FB1C1A70FB1CD7
S11355201B78002B08D07B68DB78DBB204221343A2
S1135530DAB27B68DA7007E07B68DB78DBB20422DE
S11355409343DAB27B68DA70C046BD4602B080BDD0
S113555080B582B000AF78600A00FB1C1A70FB1C97
S11355601B78002B08D07B68DB78DBB2082213435E
S1135570DAB27B68DA7007E07B68DB78DBB208229A
S11355809343DAB27B68DA70C046BD4602B080BD90
S113559080B582B000AF78600A00FB1C1A70FB1C57
S11355A01B78002B08D07B68DB78DBB20422134322
S11355B0DAB27B68DA7007E07B68DB78DBB204225E
S11355C09343DAB27B68DA70C046BD4602B080BD50
S11355D090B58BB000AFF860B9607A603B60FB684F
S11355E0002B05D12B4B2C4A2C48FF21FFF734FE0E
S11355F0FB681A792A4B1A71FB681A68284B1A60DF
S1135600274B1B79062B05D03EDC012B02D0032B44
S11356101DD039E01C243B191800FEF75FFE210061
S11356207B18BA681A601E4B1B687A6879181800D0
S1135630FEF730FD1A4B1B6801211800FFF748FFE5
S1135640174B1B6801211800FFF762FF1DE01024AF
S11356503B191800FDF77CFA21007B18BA681A6020
S11356600F4B1B687A6879181800FDF717F90C4B73
S11356701B6801211800FFF76BFF094B1B68012110
S11356801800FFF785FF00E0C046C046BD460BB0DA
S113569090BDC0463C7000005C7000004870000083
S11356A070E0FF1F80B500AF134B1B79002B01D1B5
S11356B000231DE0104B1B79062B05D010DC012BB9
S11356C002D0032B06D00BE00B4B1B681800FEF72F
S11356D0E5FD09E0084B1B681800FDF71FFA03E01D
S11356E0054B00221A71C046034B00221A71002395
S11356F01800BD4680BDC04670E0FF1F80B500AFF6
S1135700104B1B79012B02D0032B0BD015E0C046A4
S11357100C4B1B681800FEF71FFF030040221340C8
S1135720F6D00AE0C046074B1B681800FDF792FB51
S1135730030040221340F6D0C04600231800BD46A3
S113574080BDC04670E0FF1F80B586B000AFF86032
S1135750B960FB1D1A7000237B611F4B1B79062B5C
S113576005D030DC012B02D0032B16D02BE0FB1D1F
S11357701B78002B07D0184B1B68BA68F96818000F
S1135780FEF73AFF22E0144B1B68BA68F968180068
S1135790FEF77CFF03007B6118E0FB1D1B78002BE8
S11357A007D00D4B1B68BA68F9681800FDF7B0FB09
S11357B00CE0094B1B68BA68F9681800FDF7D6FBC2
S11357C003007B6102E001237B61C0467B69180012
S11357D0BD4606B080BDC04670E0FF1F90B587B0DF
S11357E000AFF8607A603B600B243B190A1C1A7006
S11357F0FA6810203B181A603B183A1912781A718B
S11358003A68796838180023FFF7E2FE002318008D
S1135810BD4607B090BD80B500AFFFF743FFC0465B
S1135820BD4680BD80B500AFFFF768FF00231800B8
S1135830BD4680BD80B582B000AF786039607B68BA
S1135840002B06D1084B094A4021FF310848FFF7D5
S113585003FD3A687B681100180000F00BF80300A0
S11358601800BD4602B080BD647000009070000056
S11358707070000080B584B000AF786039600F218B
S11358807B1800221A703B68002B13D07B68002B16
S113589010D07B1801221A707B181B78002B09D0BA
S11358A039687B6801221800FFF74EFF031E01D000
S11358B000233B603B681800BD4604B080BD80B542
S11358C084B000AF786039607B68002B06D1264B2A
S11358D0264AB22149002648FFF7BEFC0023FB609C
S11358E00023FB6024E0FB687A68D318180000F0FA
S11358F069F8031E02D001235B4230E0FB687A683A
S1135900D3181B780D2B05D0FB687A68D3181B7845
S11359100A2B0AD1FB68002B0FD1FB687A68D318D5
S113592000221A7001235B42FB60FB680133FB60B9
S1135930FB683A689A42D6D800E0C046FB683A68E9
S11359409A4205D1FB687A68D31800221A7005E0E0
S1135950FB6801337A68D31800221A70FB681800B8
S1135960BD4604B080BDC046647000009C70000059
S11359707070000080B584B000AF78607B68002B45
S113598006D10D4B0D4ACB2149000D48FFF764FCAD
S11359900023FB607B68180000F014F8031E02D19A
S11359A00123FB6002E001235B42FB60FB681800FB
S11359B0BD4604B080BDC04684700000AC700000D9
S11359C07070000080B582B000AF78607B68002200
S11359D001211800FFF7B8FE031E01D0012300E0E7
S11359E000231800BD4602B080BDC04680B584B017
S11359F000AF78600F23FB1800221A707B681A68C6
S1135A000E23FB1812781A7010E00F217B181A78F5
S1135A107B1801321A707B681B685A1C7B681A60F9
S1135A207B681A680E23FB1812781A700E22BB18B2
S1135A301B78202BE9D0BB181B78092BE5D0BB18A9
S1135A401B780A2BE1D0BB181B780D2BDDD0BB18BB
S1135A501B780B2BD9D0BB181B780C2BD5D00F235C
S1135A60FB181B781800BD4604B080BD80B58CB00F
S1135A7000AFF860B9607A603B600023FB61FB68AB
S1135A80BB61BB695A1CBA6100221A707B68002B87
S1135A9035D0BB681B68FB62FB6A002B2BD1BB694A
S1135AA030221A70FB690133FB61FB6964E03968D9
S1135AB0F86A00F0F5FC03003B613B693A68534324
S1135AC0FA6AD31ABB62BB6A002B06DABB6A3B6272
S1135AD03B6A3022D31ABB6202E0BB6A3033BB623A
S1135AE03B69FB62BB695A1CBA61BA6AD2B21A70CA
S1135AF0FB690133FB61FB6A002BD8D13BE0BB6837
S1135B001B687B627B6A002B32D1BB6930221A701E
S1135B10FB690133FB61FB692EE03B681900786A7D
S1135B2000F034FC03007B613B687A6953437A6A72
S1135B30D31A3B623B6A092B03D83B6A30333B627E
S1135B400BE03823FB181B78002B01D0412300E025
S1135B5061233A6A9B180A3B3B627B697B62BB699F
S1135B605A1CBA613A6AD2B21A70FB690133FB61FA
S1135B707B6A002BD1D1FB691800BD460CB080BDF7
S1135B8090B59DB002AFF860B9607A603B600023C5
S1135B903B660023FB650023BB614A23FB180022FC
S1135BA01A7000233B61FB687B666FE17B6C252BDD
S1135BB008D07B6CDAB21823F91878683C680123A2
S1135BC0A04760E14B23FB1801221A7000237B6578
S1135BD00023BB651BE07B6E01337B667B6E1B7809
S1135BE07B647B6C2F2B0DDD7B6C392B0ADC7A6D8F
S1135BF013009B009B185B001A007B6CD318303B8E
S1135C007B6504E07B6E013B7B660123BB65BB6D5A
S1135C10002BE0D006233B657B6E01337B667B6EF5
S1135C201B782E2B24D100233B650023BB651BE08E
S1135C307B6E01337B667B6E1B787B647B6C2F2BC6
S1135C400DDD7B6C392B0ADC3A6D13009B009B182D
S1135C505B001A007B6CD318303B3B6504E07B6E21
S1135C60013B7B660123BB65BB6D002BE0D002E0EA
S1135C707B6E013B7B667B6E01337B667B6E1B78A0
S1135C807B647B6C642B1BD07B6C692B18D07B6C86
S1135C90662B15D07B6C462B12D07B6C782B0FD0E7
S1135CA07B6C582B0CD07B6C6F2B09D07B6C622BDC
S1135CB006D07B6C702B03D07B6C752B00D09EE0E0
S1135CC07B6C642B02D07B6C692B16D1BB681A1DCC
S1135CD0BA601B687B611423F9181C2438194B2300
S1135CE0FB181B7800930A230122FFF7BFFE030071
S1135CF0FB653A19FB6DD3183B667B6C582B02D0BD
S1135D007B6C782B1DD17B6C782B03D14B23FB1838
S1135D1000221A70BB681A1DBA601B683B6110230D
S1135D20F9181C2438194B23FB181B7800931023F3
S1135D300022FFF79BFE0300FB653A19FB6DD318A5
S1135D403B667B6C6F2B08D07B6C622B05D07B6C25
S1135D50702B02D07B6C752B35D1BB681A1DBA60D1
S1135D601B683B617B6C6F2B04D14A23FB18082210
S1135D701A7013E07B6C622B04D14A23FB180222B5
S1135D801A700BE07B6C702B04D14A23FB18102291
S1135D901A7003E04A23FB180A221A704A23FB18DC
S1135DA01A781023F9181C2438194B23FB181B7874
S1135DB0009313000022FFF759FE0300FB653A1914
S1135DC0FB6DD3183B66FB6D7A6DD31A1822B91894
S1135DD078683C682022A0473B6E002B53D009E032
S1135DE03B6E5A1E3A661A781823F91878683C688C
S1135DF00123A0473B6E1B78002BF1D143E07B6C61
S1135E00632B0ED1BB681A1DBA601B68DBB23B64FE
S1135E103B6CDAB21823F91878683C680123A04770
S1135E2031E07B6C732B26D1BB681A1DBA601B68EA
S1135E30FB64FB6C002B26D0FB6C180000F0C2FC4A
S1135E400300FB65FB6D7A6DD31A1822B9187868C4
S1135E503C682022A04709E0FB6C5A1CFA641A78BB
S1135E601823F91878683C680123A047FB6C1B7859
S1135E70002BF1D107E07B6CDAB21823F9187868AB
S1135E803C680123A0477B6E01337B667B6E1B78E5
S1135E907B647B6C002B00D088E6BB691800BD4690
S1135EA01BB090BD80B58EB000AFF860B9607A6069
S1135EB0BB687B610023FB6200237B6200233B629F
S1135EC0FB683B613B691B78002B00D04DE201234A
S1135ED05B4256E21423FB181800FFF787FD031EEC
S1135EE009D01023FB181800FFF780FD02003B6A5D
S1135EF09B183B6239E27B691B78252B08D17B69AF
S1135F001B78252B18D17B6901331B78252B13D1E2
S1135F107B6901337B613B691A787B691B789A4200
S1135F2000D02CE23B6A01333B623B6901333B61A5
S1135F307B6901337B6118E27B6901337B61002358
S1135F40FB620023BB623723FB1800221A707EE039
S1135F507B691B78303B482B00D976E09A00C64B0E
S1135F60D3181B689F46BB6A002B01D07B6A08E2EA
S1135F70BA6A13009B009B185B001A007B691B78AC
S1135F80D318303BBB627B6901337B617B691B782F
S1135F902F2B5CD97B691B78392BE9D957E0372340
S1135FA0FB180A221A70FB6A802292011343FB62D7
S1135FB0FB6A20221343FB627B6901337B6146E069
S1135FC03723FB180A221A70FB6A20221343FB6250
S1135FD07B6901337B613AE03723FB1808221A708E
S1135FE0FB6A20221343FB627B6901337B612EE051
S1135FF03723FB1810221A70FB6A20221343FB621A
S11360007B6901337B6122E03723FB1800221A707D
S1136010FB6A20221343FB627B6901337B6116E038
S1136020FB6A04221343FB62BB6A002B01D10123E8
