S00C00006D61696E2E7372656373
S113000008E4FF1F810700007D0700007D07000052
S113001000000000000000000000000000000000DC
S11300200000000000000000000000007D07000048
S113003000000000000000007D0700007D070000B4
S1130040810700008107000081070000810700008C
S11300500000000081070000810700008107000004
S1130060810700008107000081070000810700006C
S1130070810700008107000081070000810700005C
S1130080810700008107000081070000810700004C
S113009081070000810700008107000000000000C4
S11300A0810700008107000081070000810700002C
S11300B0810700000000000081070000B106000075
S1130400FFFFFFFFFFFFFFFFFFFFFFFFFEFFFFFFF9
S1130410002382B00193019B054A934205DC019BB2
S113042001330193019B9342F9DD02B07047C0464A
S11304303F420F0088220021094B5201995009497B
S1130440013A5858FF3A02435A5080222021064B61
S113045052005A61054B5A690A435A615960704700
S1130460007004403810000000C00440C0F00F4089
S11304702022014BDA607047C0F00F40882200212F
S11304800A4B52019950802209499201585802435B
S11304905A5080228021074B52005A67064B890527
S11304A05A690A435A6159607047C0460070044053
S11304B03810000000D0044000F10F408022024BAD
S11304C09205DA607047C04600F10F402022014BCC
S11304D05A607047C0F00F408022024B92055A6068
S11304E07047C04600F10F402022014B9A607047CC
S11304F0C0F00F408023034A9B0591680B4393602F
S11305007047C04600F10F40882200210D4B520174
S1130510995080220C491201585802435A500B4BEF
S11305205A695A6181220A4B5200D9680A43DA6037
S1130530A022D96812030A43DA608022054B12060E
S11305401A607047007004403810000080F00F40BB
S113055000B0044000E100E0882200210D4B52016C
S1130560995080220C491201585802435A500B4B9F
S11305705A695A6181220A4B5200196B0A431A6361
S1130580A022196B12030A431A638022054B120638
S11305901A607047007004403810000080F00F406B
S11305A000B0044000E100E00120024B1B69DB08BD
S11305B09843704780F00F400120024B1B691B0BCE
S11305C09843704780F00F40F0B5DE4657464E46DC
S11305D0454688200024E0B5802581262B4B2C4AF3
S11305E040011C5099582D012A4F2943995079698B
S11305F0AC46796128497600CD68B3463543CD6071
S1130600CD682E00A0252D032E43CE60234EB04688
S113061080263606B14646464D46356066461C5031
S11306209D582E439E505E467D697D61A0250F6BCB
S11306302D033E430E630E6B35430D6341464D4619
S11306400D608021802620271C509D584901294394
S11306509950134976004E6112494D693D434D61ED
S11306604F6080211C509858890101439950802182
S11306700D4B89055E670D4B5A690A435A615960EF
S1130680F0BCBB46B246A946A046F0BD007004408B
S11306903810000080F00F4000B0044000E100E09A
S11306A000C00440C0F00F4000D0044000F10F40EF
S11306B0A0222C4B995809071DD49A58D2043CD532
S11306C08022D96852041143D960196B0A431A6312
S11306D0254A1368022B42D03CDC002B1CD0012B92
S11306E01CD1002313602022204B9A608022204BCF
S11306F092055A601BE08022D96852041143D960E4
S1130700196B0A431A63184A1368012B27D00FDDAB
S1130710022BE6D0032B01D1012313602022134BBB
S11307205A608023124A9B0591680B43936070477B
S1130730002BF3D102231360F0E78022D96852041E
S11307401143D960196B0A431A63074B1B68002BCA
S1130750E4D1C8E7032BE1D102231360DEE70323CE
S11307601360DBE700B0044000E0FF1FC0F00F405F
S113077000F10F4010B5FFF727FFFEE7FEE7C04684
S11307800D480E4B10B5984207D2013B1A1A920835
S113079001320B49920000F019F80A480A4B9842BA
S11307A007D2013B1A1A920801320021920000F08C
S11307B09DF8FFF7DFFF10BD00E0FF1F00E0FF1F03
S11307C0200A000000E0FF1F04E0FF1F0F0052E3B7
S11307D03600009A013080E1030013E33F00001A61
S11307E010C042E2F0402DE9204081E20FE0CCE36A
S11307F0103081E2106080E20E4084E02C52A0E1CF
S11308000CE013E508C013E5107013E50CE006E5F1
S1130810103083E214E013E5040053E1005006E9CC
S1130820107006E5106086E2F4FFFF1A01C085E24D
S11308300C0012E30F3002E20C1281E00320A0014D
S11308400CC280E00D00000A0140A0E1043043E244
S11308500360C3E323E1A0E106608CE004304CE2D2
S1130860045094E40450A3E5060053E1FBFFFF1A8F
S113087001308EE2032002E203C18CE0031181E027
S1130880000052E3013042E20130831201204C1295
S1130890033081100300000A01C0D1E4030051E1D8
S11308A001C0E2E5FBFFFF1AF040BDE81EFF2FE1A7
S11308B0000052E300C0A0E1013042E21EFF2F011C
S11308C0013083E201204CE2033081E001C0D1E435
S11308D0030051E101C0E2E5FBFFFF1A1EFF2FE117
S11308E000C0A0E1013042E2F4FFFFEA030010E39C
S11308F04000000A000052E3012042E21EFF2F01E3
S11309000030A0E1FFC001E2020000EA012042E25F
S1130910010072E31EFF2F0101C0C3E4030013E3CF
S1130920F9FFFF1A030052E32800009A30402DE932
S1130930FFE001E20EE48EE10F0052E30EE88EE1E7
S11309402E00009A10C042E20F40CCE3205083E214
S1130950045085E02C42A0E110C083E210E00CE5D5
S11309600CE00CE508E00CE504E00CE510C08CE2BA
S113097005005CE1F8FFFF1A01C084E20C0012E3F9
S11309800CC283E00F2002E21800000A043042E2A5
S11309900330C3E3043083E203308CE004E08CE4EE
S11309A00C0053E1FCFFFF1A032002E2000052E3B3
S11309B00400000AFF1001E2022083E00110C3E4F6
S11309C0030052E1FCFFFF1A3040BDE81EFF2FE197
S11309D0000052E31EFF2F01FF1001E2022083E01A
S11309E00110C3E4030052E1FCFFFF1A1EFF2FE1D4
S11309F00C30A0E1ECFFFFEA0030A0E1C8FFFFEA01
S10B0A0003C0A0E1E0FFFFEADE
S10F0A080DC0A0E1F8DF2DE904B04CE2C1
S10F0A140DC0A0E1F8DF2DE904B04CE2B5
S9030410E8
