S00C00006D61696E2E7372656373
S113000000E4FF1FA5070000A1070000A1070000EE
S113001000000000000000000000000000000000DC
S1130020000000000000000000000000A107000024
S11300300000000000000000A1070000A10700006C
S1130040A5070000A5070000A5070000A5070000FC
S113005000000000A5070000A5070000A507000098
S1130060A5070000A5070000A5070000A5070000DC
S1130070A5070000A5070000A5070000A5070000CC
S1130080A5070000A5070000A5070000A5070000BC
S1130090A5070000A5070000A50700000000000058
S11300A0A5070000A5070000A5070000A50700009C
S11300B0A507000000000000A5070000A507000038
S1130400FFFFFFFFFFFFFFFFFFFFFFFFFEFFFFFFF9
S1130410002382B00193019B054A934205DC019BB2
S113042001330193019B9342F9DD02B07047C0464A
S11304303F420F0088220021094B5201995009497B
S1130440013A5858FF3A02435A5080222021064B61
S113045052005A61054B5A690A435A615960704700
S1130460007004403810000000C00440C0F00F4089
S11304702022014BDA607047C0F00F40882200212F
S11304800A4B52019950802209499201585802435B
S11304905A5080228021074B52005A67064B890527
S11304A05A690A435A6159607047C0460070044053
S11304B03810000000D0044000F10F408022024BAD
S11304C09205DA607047C04600F10F402022014BCC
S11304D05A607047C0F00F408022024B92055A6068
S11304E07047C04600F10F402022014B9A607047CC
S11304F0C0F00F408023034A9B0591680B4393602F
S11305007047C04600F10F4088220021094B520178
S11305109950802208491201585802435A50074BF7
S11305205A695A618123064A5B00D1680B43D36040
S11305307047C046007004403810000080F00F403F
S113054000B0044088220021094B520199508022B6
S113055008491201585802435A50074B5A695A61C4
S11305608123064A5B00116B0B4313637047C0463B
S1130570007004403810000080F00F4000B00440C8
S11305800120024B1B69DB089843704780F00F4041
S11305900120024B1B691B0B9843704780F00F40EE
S11305A08821F0B500204746CE468025214B224ABB
S11305B0490180B558509C582D01204E2C439C5025
S11305C07469A84674611E4CE568AC46812567468B
S11305D06D00A9462F434546E76058509F583D4358
S11305E09D504D4677697761266B202735432563F7
S11305F08024802658509D5864012C439C50114CF3
S113060076006661104C65693D43656167605850CA
S11306108021985889010143995080210B4B890509
S11306205E670B4B5A690A435A615960C0BCB946AC
S1130630B046F0BD007004403810000080F00F4058
S113064000B0044000C00440C0F00F4000D004409B
S113065000F10F40F0B5CE46474680B583B0FFF7B2
S11306609FFF0823984680235B019C4680239B05BB
S1130670002120269946464C464F47484246654647
S11306802369134022692A40022924D0032940D037
S113069001292FD0BE60002B48D14B4643607E60B9
S11306A08368002A57D14A460321134383600023F9
S11306B00193019B394A9342E0DC019B013301938E
S11306C0019B9342F9DD4246654623691340226942
S11306D02A400229DAD1002B33D17E608368002AB4
S11306E01DD14A46134383607E608368012113430E
S11306F08360DCE7002B38D17E608368002A24D134
S11307004A46134383607E608368022113438360F7
S1130710CDE7002B24D17E608368002AE1D14A46CC
S1130720134383600021BE604260C0E74B464360D0
S1130730002A2BD14A467E608368012113438360DB
S1130740B5E7002A1CD17E6083684A461343836060
S11307507E608368A7E74A46134302218360A6E7C5
S1130760002A0DD17E608368CAE7002A08D14A4670
S11307707E608368002113438360BE60426096E715
S11307804A467E6083681343836077E7002175E7F8
S113079080F00F40C0F00F4000F10F403F420F00C7
S11307A0FEE7C0460D480E4B10B5984207D2013BF8
S11307B01A1A920801320B49920000F019F80A48FB
S11307C00A4B984207D2013B1A1A920801320021BF
S11307D0920000F09DF8FFF73DFF10BD00E0FF1F01
S11307E000E0FF1F440A000000E0FF1F00E0FF1FBD
S11307F00F0052E33600009A013080E1030013E356
S11308003F00001A10C042E2F0402DE9204081E28E
S11308100FE0CCE3103081E2106080E20E4084E00F
S11308202C52A0E10CE013E508C013E5107013E5A9
S11308300CE006E5103083E214E013E5040053E114
S1130840005006E9107006E5106086E2F4FFFF1A16
S113085001C085E20C0012E30F3002E20C1281E0C9
S11308600320A0010CC280E00D00000A0140A0E1B9
S1130870043043E20360C3E323E1A0E106608CE0BB
S113088004304CE2045094E40450A3E5060053E120
S1130890FBFFFF1A01308EE2032002E203C18CE069
S11308A0031181E0000052E3013042E2013083127F
S11308B001204C12033081100300000A01C0D1E46E
S11308C0030051E101C0E2E5FBFFFF1AF040BDE87F
S11308D01EFF2FE1000052E300C0A0E1013042E21C
S11308E01EFF2F01013083E201204CE2033081E03E
S11308F001C0D1E4030051E101C0E2E5FBFFFF1AAE
S11309001EFF2FE100C0A0E1013042E2F4FFFFEA44
S1130910030010E34000000A000052E3012042E219
S11309201EFF2F010030A0E1FFC001E2020000EA37
S1130930012042E2010072E31EFF2F0101C0C3E463
S1130940030013E3F9FFFF1A030052E32800009A9F
S113095030402DE9FFE001E20EE48EE10F0052E3A6
S11309600EE88EE12E00009A10C042E20F40CCE364
S1130970205083E2045085E02C42A0E110C083E2C1
S113098010E00CE50CE00CE508E00CE504E00CE5F7
S113099010C08CE205005CE1F8FFFF1A01C084E29C
S11309A00C0012E30CC283E00F2002E21800000ADC
S11309B0043042E20330C3E3043083E203308CE0CA
S11309C004E08CE40C0053E1FCFFFF1A032002E274
S11309D0000052E30400000AFF1001E2022083E059
S11309E00110C3E4030052E1FCFFFF1A3040BDE8EC
S11309F01EFF2FE1000052E31EFF2F01FF1001E252
S1130A00022083E00110C3E4030052E1FCFFFF1A5B
S1130A101EFF2FE10C30A0E1ECFFFFEA0030A0E163
S10F0A20C8FFFFEA03C0A0E1E0FFFFEA0A
S10F0A2C0DC0A0E1F8DF2DE904B04CE29D
S10F0A380DC0A0E1F8DF2DE904B04CE291
S9030410E8
