S00C00006D61696E2E7372656373
S113000008E4FF1F3508000095080000950800006B
S113001000000000000000000000000000000000DC
S1130020000000000000000000000000950800002F
S11300300000000000000000950800009508000082
S113004035080000350800003508000035080000B8
S113005000000000350800003508000035080000E5
S11300603508000035080000350800003508000098
S11300703508000035080000350800003508000088
S11300803508000035080000350800003508000078
S113009035080000350800003508000000000000A5
S11300A03508000035080000350800003508000058
S11300B0350800000000000035080000DB060000E1
S1130400FFFFFFFFFFFFFFFFFFFFFFFFFEFFFFFFF9
S113041080B582B000AF0200FB1D1A70FB1D1B7873
S11304207F2B09D8FB1D1B781A001F231A40044B8D
S1130430012191400A001A60C046BD4602B080BD49
S113044000E100E080B582B000AF00237B6002E0F1
S11304507B6801337B607B68092BF9DDC046C046AD
S1130460BD4602B080BD80B500AF104A88235B0151
S11304700021D1500D4A0E4BD3580C498022520111
S113048013430B4A8B500B4B802252005A610A4B88
S11304905A69094B20210A435A61074B5A68064B93
S11304A020210A435A60C046BD4680BD0070044006
S11304B03810000000C00440C0F00F4080B500AF09
S11304C0024B2022DA60C046BD4680BDC0F00F401A
S11304D080B500AF114A88235B010021D1500F4A37
S11304E00F4BD3580D498022920113430C4A8B5071
S11304F00C4B802252005A670B4B5A690A4B8021DD
S113050089050A435A61084B5A68074B80218905BB
S11305100A435A60C046BD4680BDC04600700440D0
S11305203810000000D0044000F10F4080B500AF47
S1130530044BDA68034B802189050A43DA60C0461C
S1130540BD4680BD00F10F4080B500AF044B5A6832
S1130550034B20210A435A60C046BD4680BDC046B5
S1130560C0F00F4080B500AF044B5A68034B8021A4
S113057089050A435A60C046BD4680BD00F10F405C
S113058080B500AF044B9A68034B20210A439A605C
S1130590C046BD4680BDC046C0F00F4080B500AF28
S11305A0044B9A68034B802189050A439A60C0462C
S11305B0BD4680BD00F10F4080B500AF134A8823CB
S11305C05B010021D150114A114BD3580F498022AD
S11305D0120113430E4A8B500E4B5A690D4B0821DE
S11305E08A435A610C4BDA680B4B812149000A4358
S11305F0DA60094BDA68084BA02109030A43DA6080
S11306001F20FFF705FFC046BD4680BD00700440B3
S11306103810000080F00F4000B0044080B500AFF7
S1130620134A88235B010021D150114A114BD3583E
S11306300F498022120113430E4A8B500E4B5A6904
S11306400D4B0E490A405A610D4B1A6B0C4B81211C
S113065049000A431A630A4B1A6B094BA021090388
S11306600A431A631F20FFF7D3FEC046BD4680BD70
S1130670007004403810000080F00F40FFEFFFFFCF
S113068000B0044080B500AF044B1B69082213403E
S11306905A425341DBB21800BD4680BD80F00F4082
S11306A080B500AF054B1A6980235B0113405A42A1
S11306B05341DBB21800BD4680BDC04680F00F40F8
S11306C080B500AFFFF778FFFFF7A8FFFFF7CBFE79
S11306D0FFF7FEFEC046BD4680BD80B582B000AFC8
S11306E000237B6000233B604D4AA023D35808229B
S11306F0134002D001237B6008E0494AA023D2586A
S113070080235B01134001D001233B60444BDA6832
S1130710434B802149040A43DA60414B1A6B404B36
S1130720802149040A431A633E4B1B68032B49D0BA
S113073000DD63E0022B30D000DD5FE0002B02D04F
S1130740012B15D05AE07B68002B0AD03B68002BA4
S113075003D0344B03221A6049E0324B02221A6060
S113076045E03B68002B42D02E4B01221A603EE04C
S11307707B68002B0AD03B68002B03D0294B022254
S11307801A6036E0274B03221A6032E03B68002BE4
S11307902FD0244B00221A602BE07B68002B0AD058
S11307A03B68002B03D01F4B01221A6023E01D4B32
S11307B000221A601FE03B68002B1CD0194B032257
S11307C01A6018E07B68002B0AD03B68002B03D02A
S11307D0144B00221A6010E0124B01221A600CE044
S11307E03B68002B09D00F4B02221A6005E0C0467B
S11307F004E0C04602E0C04600E0C046094B1B6866
S1130800002B04D1FFF7BCFEFFF7ACFE04E0FFF7BA
S11308109BFEFFF7C3FEC046C046BD4602B080BD86
S113082000B0044000E0FF1F80B500AFFFF748FFB1
S1130830FEE7C04680B582B000AF114B7B60114B20
S11308403B6007E07A68131D7B603B68191D3960C3
S113085012681A603A680C4B9A42F3D30B4B3B6014
S113086004E03B681A1D3A6000221A603A68084B9B
S11308709A42F6D3FFF7D8FFC046BD4602B080BD0A
S1130880B408000000E0FF1F00E0FF1F00E0FF1FAE
S10F089004E0FF1F80B500AFFEE7C04687
S10F089C0DC0A0E1F8DF2DE904B04CE22F
S10F08A80DC0A0E1F8DF2DE904B04CE223
S9030410E8
